{
  "_format": "hh-sol-artifact-1",
  "contractName": "FrozenNFT",
  "sourceName": "contracts/FrozenNFT.sol",
  "abi": [
    {
      "inputs": [
        {
          "internalType": "address",
          "name": "vrfCoordinatorV2",
          "type": "address"
        },
        {
          "internalType": "uint64",
          "name": "subscriptionId",
          "type": "uint64"
        },
        {
          "internalType": "bytes32",
          "name": "gasLane",
          "type": "bytes32"
        },
        {
          "internalType": "uint32",
          "name": "callbackGasLimit",
          "type": "uint32"
        },
        {
          "internalType": "string[6]",
          "name": "characterTokenUris",
          "type": "string[6]"
        },
        {
          "internalType": "uint256",
          "name": "mintFee",
          "type": "uint256"
        }
      ],
      "stateMutability": "nonpayable",
      "type": "constructor"
    },
    {
      "inputs": [],
      "name": "FrozenNFT__NeedMoreETHSent",
      "type": "error"
    },
    {
      "inputs": [],
      "name": "FrozenNFT__RangeOutOfBounds",
      "type": "error"
    },
    {
      "inputs": [],
      "name": "FrozenNFT__TransferFailed",
      "type": "error"
    },
    {
      "inputs": [
        {
          "internalType": "address",
          "name": "have",
          "type": "address"
        },
        {
          "internalType": "address",
          "name": "want",
          "type": "address"
        }
      ],
      "name": "OnlyCoordinatorCanFulfill",
      "type": "error"
    },
    {
      "anonymous": false,
      "inputs": [
        {
          "indexed": true,
          "internalType": "address",
          "name": "owner",
          "type": "address"
        },
        {
          "indexed": true,
          "internalType": "address",
          "name": "approved",
          "type": "address"
        },
        {
          "indexed": true,
          "internalType": "uint256",
          "name": "tokenId",
          "type": "uint256"
        }
      ],
      "name": "Approval",
      "type": "event"
    },
    {
      "anonymous": false,
      "inputs": [
        {
          "indexed": true,
          "internalType": "address",
          "name": "owner",
          "type": "address"
        },
        {
          "indexed": true,
          "internalType": "address",
          "name": "operator",
          "type": "address"
        },
        {
          "indexed": false,
          "internalType": "bool",
          "name": "approved",
          "type": "bool"
        }
      ],
      "name": "ApprovalForAll",
      "type": "event"
    },
    {
      "anonymous": false,
      "inputs": [
        {
          "indexed": false,
          "internalType": "enum FrozenNFT.Character",
          "name": "character",
          "type": "uint8"
        },
        {
          "indexed": false,
          "internalType": "address",
          "name": "minter",
          "type": "address"
        }
      ],
      "name": "NftMinted",
      "type": "event"
    },
    {
      "anonymous": false,
      "inputs": [
        {
          "indexed": true,
          "internalType": "uint256",
          "name": "requestId",
          "type": "uint256"
        },
        {
          "indexed": false,
          "internalType": "address",
          "name": "requester",
          "type": "address"
        }
      ],
      "name": "NftRequested",
      "type": "event"
    },
    {
      "anonymous": false,
      "inputs": [
        {
          "indexed": true,
          "internalType": "address",
          "name": "previousOwner",
          "type": "address"
        },
        {
          "indexed": true,
          "internalType": "address",
          "name": "newOwner",
          "type": "address"
        }
      ],
      "name": "OwnershipTransferred",
      "type": "event"
    },
    {
      "anonymous": false,
      "inputs": [
        {
          "indexed": true,
          "internalType": "address",
          "name": "from",
          "type": "address"
        },
        {
          "indexed": true,
          "internalType": "address",
          "name": "to",
          "type": "address"
        },
        {
          "indexed": true,
          "internalType": "uint256",
          "name": "tokenId",
          "type": "uint256"
        }
      ],
      "name": "Transfer",
      "type": "event"
    },
    {
      "inputs": [
        {
          "internalType": "address",
          "name": "to",
          "type": "address"
        },
        {
          "internalType": "uint256",
          "name": "tokenId",
          "type": "uint256"
        }
      ],
      "name": "approve",
      "outputs": [],
      "stateMutability": "nonpayable",
      "type": "function"
    },
    {
      "inputs": [
        {
          "internalType": "address",
          "name": "owner",
          "type": "address"
        }
      ],
      "name": "balanceOf",
      "outputs": [
        {
          "internalType": "uint256",
          "name": "",
          "type": "uint256"
        }
      ],
      "stateMutability": "view",
      "type": "function"
    },
    {
      "inputs": [
        {
          "internalType": "uint256",
          "name": "tokenId",
          "type": "uint256"
        }
      ],
      "name": "getApproved",
      "outputs": [
        {
          "internalType": "address",
          "name": "",
          "type": "address"
        }
      ],
      "stateMutability": "view",
      "type": "function"
    },
    {
      "inputs": [],
      "name": "getChanceArray",
      "outputs": [
        {
          "internalType": "uint256[6]",
          "name": "",
          "type": "uint256[6]"
        }
      ],
      "stateMutability": "pure",
      "type": "function"
    },
    {
      "inputs": [
        {
          "internalType": "uint256",
          "name": "moddedRng",
          "type": "uint256"
        }
      ],
      "name": "getCharacterFromModdedRng",
      "outputs": [
        {
          "internalType": "enum FrozenNFT.Character",
          "name": "",
          "type": "uint8"
        }
      ],
      "stateMutability": "pure",
      "type": "function"
    },
    {
      "inputs": [
        {
          "internalType": "uint256",
          "name": "index",
          "type": "uint256"
        }
      ],
      "name": "getCharacterTokenUris",
      "outputs": [
        {
          "internalType": "string",
          "name": "",
          "type": "string"
        }
      ],
      "stateMutability": "view",
      "type": "function"
    },
    {
      "inputs": [],
      "name": "getMintFee",
      "outputs": [
        {
          "internalType": "uint256",
          "name": "",
          "type": "uint256"
        }
      ],
      "stateMutability": "view",
      "type": "function"
    },
    {
      "inputs": [],
      "name": "getTokenCounter",
      "outputs": [
        {
          "internalType": "uint256",
          "name": "",
          "type": "uint256"
        }
      ],
      "stateMutability": "view",
      "type": "function"
    },
    {
      "inputs": [
        {
          "internalType": "address",
          "name": "owner",
          "type": "address"
        },
        {
          "internalType": "address",
          "name": "operator",
          "type": "address"
        }
      ],
      "name": "isApprovedForAll",
      "outputs": [
        {
          "internalType": "bool",
          "name": "",
          "type": "bool"
        }
      ],
      "stateMutability": "view",
      "type": "function"
    },
    {
      "inputs": [],
      "name": "name",
      "outputs": [
        {
          "internalType": "string",
          "name": "",
          "type": "string"
        }
      ],
      "stateMutability": "view",
      "type": "function"
    },
    {
      "inputs": [],
      "name": "owner",
      "outputs": [
        {
          "internalType": "address",
          "name": "",
          "type": "address"
        }
      ],
      "stateMutability": "view",
      "type": "function"
    },
    {
      "inputs": [
        {
          "internalType": "uint256",
          "name": "tokenId",
          "type": "uint256"
        }
      ],
      "name": "ownerOf",
      "outputs": [
        {
          "internalType": "address",
          "name": "",
          "type": "address"
        }
      ],
      "stateMutability": "view",
      "type": "function"
    },
    {
      "inputs": [
        {
          "internalType": "uint256",
          "name": "requestId",
          "type": "uint256"
        },
        {
          "internalType": "uint256[]",
          "name": "randomWords",
          "type": "uint256[]"
        }
      ],
      "name": "rawFulfillRandomWords",
      "outputs": [],
      "stateMutability": "nonpayable",
      "type": "function"
    },
    {
      "inputs": [],
      "name": "renounceOwnership",
      "outputs": [],
      "stateMutability": "nonpayable",
      "type": "function"
    },
    {
      "inputs": [],
      "name": "requestNft",
      "outputs": [
        {
          "internalType": "uint256",
          "name": "requestId",
          "type": "uint256"
        }
      ],
      "stateMutability": "payable",
      "type": "function"
    },
    {
      "inputs": [
        {
          "internalType": "uint256",
          "name": "",
          "type": "uint256"
        }
      ],
      "name": "s_requestIdToSender",
      "outputs": [
        {
          "internalType": "address",
          "name": "",
          "type": "address"
        }
      ],
      "stateMutability": "view",
      "type": "function"
    },
    {
      "inputs": [
        {
          "internalType": "address",
          "name": "from",
          "type": "address"
        },
        {
          "internalType": "address",
          "name": "to",
          "type": "address"
        },
        {
          "internalType": "uint256",
          "name": "tokenId",
          "type": "uint256"
        }
      ],
      "name": "safeTransferFrom",
      "outputs": [],
      "stateMutability": "nonpayable",
      "type": "function"
    },
    {
      "inputs": [
        {
          "internalType": "address",
          "name": "from",
          "type": "address"
        },
        {
          "internalType": "address",
          "name": "to",
          "type": "address"
        },
        {
          "internalType": "uint256",
          "name": "tokenId",
          "type": "uint256"
        },
        {
          "internalType": "bytes",
          "name": "data",
          "type": "bytes"
        }
      ],
      "name": "safeTransferFrom",
      "outputs": [],
      "stateMutability": "nonpayable",
      "type": "function"
    },
    {
      "inputs": [
        {
          "internalType": "address",
          "name": "operator",
          "type": "address"
        },
        {
          "internalType": "bool",
          "name": "approved",
          "type": "bool"
        }
      ],
      "name": "setApprovalForAll",
      "outputs": [],
      "stateMutability": "nonpayable",
      "type": "function"
    },
    {
      "inputs": [
        {
          "internalType": "bytes4",
          "name": "interfaceId",
          "type": "bytes4"
        }
      ],
      "name": "supportsInterface",
      "outputs": [
        {
          "internalType": "bool",
          "name": "",
          "type": "bool"
        }
      ],
      "stateMutability": "view",
      "type": "function"
    },
    {
      "inputs": [],
      "name": "symbol",
      "outputs": [
        {
          "internalType": "string",
          "name": "",
          "type": "string"
        }
      ],
      "stateMutability": "view",
      "type": "function"
    },
    {
      "inputs": [
        {
          "internalType": "uint256",
          "name": "tokenId",
          "type": "uint256"
        }
      ],
      "name": "tokenURI",
      "outputs": [
        {
          "internalType": "string",
          "name": "",
          "type": "string"
        }
      ],
      "stateMutability": "view",
      "type": "function"
    },
    {
      "inputs": [
        {
          "internalType": "address",
          "name": "from",
          "type": "address"
        },
        {
          "internalType": "address",
          "name": "to",
          "type": "address"
        },
        {
          "internalType": "uint256",
          "name": "tokenId",
          "type": "uint256"
        }
      ],
      "name": "transferFrom",
      "outputs": [],
      "stateMutability": "nonpayable",
      "type": "function"
    },
    {
      "inputs": [
        {
          "internalType": "address",
          "name": "newOwner",
          "type": "address"
        }
      ],
      "name": "transferOwnership",
      "outputs": [],
      "stateMutability": "nonpayable",
      "type": "function"
    },
    {
      "inputs": [],
      "name": "withdraw",
      "outputs": [],
      "stateMutability": "nonpayable",
      "type": "function"
    }
  ],
  "bytecode": "0x6101406040523480156200001257600080fd5b50604051620043063803806200430683398181016040528101906200003891906200080b565b6040518060400160405280600a81526020017f46726f7a656e204e4654000000000000000000000000000000000000000000008152506040518060400160405280600481526020017f46525a4e00000000000000000000000000000000000000000000000000000000815250878073ffffffffffffffffffffffffffffffffffffffff1660808173ffffffffffffffffffffffffffffffffffffffff1660601b81525050508160009080519060200190620000f59291906200029e565b5080600190805190602001906200010e9291906200029e565b5050506200013162000125620001d060201b60201c565b620001d860201b60201c565b8573ffffffffffffffffffffffffffffffffffffffff1660a08173ffffffffffffffffffffffffffffffffffffffff1660601b815250508467ffffffffffffffff1660c08167ffffffffffffffff1660c01b815250508360e081815250508263ffffffff166101008163ffffffff1660e01b8152505081600a906006620001ba9291906200032f565b508061012081815250505050505050506200092b565b600033905090565b6000600760009054906101000a900473ffffffffffffffffffffffffffffffffffffffff16905081600760006101000a81548173ffffffffffffffffffffffffffffffffffffffff021916908373ffffffffffffffffffffffffffffffffffffffff1602179055508173ffffffffffffffffffffffffffffffffffffffff168173ffffffffffffffffffffffffffffffffffffffff167f8be0079c531659141344cd1fd0a4f28419497f9722a3daafe3b4186f6b6457e060405160405180910390a35050565b828054620002ac90620008f5565b90600052602060002090601f016020900481019282620002d057600085556200031c565b82601f10620002eb57805160ff19168380011785556200031c565b828001600101855582156200031c579182015b828111156200031b578251825591602001919060010190620002fe565b5b5090506200032b919062000396565b5090565b82805482825590600052602060002090810192821562000383579160200282015b8281111562000382578251829080519060200190620003719291906200029e565b509160200191906001019062000350565b5b509050620003929190620003b5565b5090565b5b80821115620003b157600081600090555060010162000397565b5090565b5b80821115620003d95760008181620003cf9190620003dd565b50600101620003b6565b5090565b508054620003eb90620008f5565b6000825580601f10620003ff575062000420565b601f0160209004906000526020600020908101906200041f919062000396565b5b50565b6000604051905090565b600080fd5b600080fd5b600073ffffffffffffffffffffffffffffffffffffffff82169050919050565b6000620004648262000437565b9050919050565b620004768162000457565b81146200048257600080fd5b50565b60008151905062000496816200046b565b92915050565b600067ffffffffffffffff82169050919050565b620004bb816200049c565b8114620004c757600080fd5b50565b600081519050620004db81620004b0565b92915050565b6000819050919050565b620004f681620004e1565b81146200050257600080fd5b50565b6000815190506200051681620004eb565b92915050565b600063ffffffff82169050919050565b62000537816200051c565b81146200054357600080fd5b50565b60008151905062000557816200052c565b92915050565b600080fd5b6000601f19601f8301169050919050565b7f4e487b7100000000000000000000000000000000000000000000000000000000600052604160045260246000fd5b620005ad8262000562565b810181811067ffffffffffffffff82111715620005cf57620005ce62000573565b5b80604052505050565b6000620005e462000423565b9050620005f28282620005a2565b919050565b600067ffffffffffffffff82111562000615576200061462000573565b5b602082029050919050565b600080fd5b600080fd5b600067ffffffffffffffff82111562000648576200064762000573565b5b620006538262000562565b9050602081019050919050565b60005b838110156200068057808201518184015260208101905062000663565b8381111562000690576000848401525b50505050565b6000620006ad620006a7846200062a565b620005d8565b905082815260208101848484011115620006cc57620006cb62000625565b5b620006d984828562000660565b509392505050565b600082601f830112620006f957620006f86200055d565b5b81516200070b84826020860162000696565b91505092915050565b60006200072b6200072584620005f7565b620005d8565b9050806020840283018581111562000748576200074762000620565b5b835b818110156200079657805167ffffffffffffffff8111156200077157620007706200055d565b5b808601620007808982620006e1565b855260208501945050506020810190506200074a565b5050509392505050565b600082601f830112620007b857620007b76200055d565b5b6006620007c784828562000714565b91505092915050565b6000819050919050565b620007e581620007d0565b8114620007f157600080fd5b50565b6000815190506200080581620007da565b92915050565b60008060008060008060c087890312156200082b576200082a6200042d565b5b60006200083b89828a0162000485565b96505060206200084e89828a01620004ca565b95505060406200086189828a0162000505565b94505060606200087489828a0162000546565b935050608087015167ffffffffffffffff81111562000898576200089762000432565b5b620008a689828a01620007a0565b92505060a0620008b989828a01620007f4565b9150509295509295509295565b7f4e487b7100000000000000000000000000000000000000000000000000000000600052602260045260246000fd5b600060028204905060018216806200090e57607f821691505b60208210811415620009255762000924620008c6565b5b50919050565b60805160601c60a05160601c60c05160c01c60e0516101005160e01c610120516139716200099560003960008181610d460152610f550152600061102f01526000610feb0152600061100c01526000610faf0152600081816108d1015261092501526139716000f3fe6080604052600436106101665760003560e01c806370a08231116100d1578063a22cb4651161008a578063b88d4fde11610064578063b88d4fde14610531578063c87b56dd1461055a578063e985e9c514610597578063f2fde38b146105d457610166565b8063a22cb465146104ad578063a36f573b146104d6578063aa1524911461051357610166565b806370a082311461039b578063715018a6146103d85780637a5caab3146103ef5780638da5cb5b1461041a57806395d89b4114610445578063976fe1821461047057610166565b80633ccfd60b116101235780633ccfd60b1461028b57806342842e0e146102a25780634d77094c146102cb5780635dacf5f4146103085780636352211e146103335780636e02007d1461037057610166565b806301ffc9a71461016b57806306fdde03146101a8578063081812fc146101d3578063095ea7b3146102105780631fe543e31461023957806323b872dd14610262575b600080fd5b34801561017757600080fd5b50610192600480360381019061018d919061251f565b6105fd565b60405161019f9190612567565b60405180910390f35b3480156101b457600080fd5b506101bd6106df565b6040516101ca919061261b565b60405180910390f35b3480156101df57600080fd5b506101fa60048036038101906101f59190612673565b610771565b60405161020791906126e1565b60405180910390f35b34801561021c57600080fd5b5061023760048036038101906102329190612728565b6107b7565b005b34801561024557600080fd5b50610260600480360381019061025b91906128b0565b6108cf565b005b34801561026e57600080fd5b506102896004803603810190610284919061290c565b61098f565b005b34801561029757600080fd5b506102a06109ef565b005b3480156102ae57600080fd5b506102c960048036038101906102c4919061290c565b610aa3565b005b3480156102d757600080fd5b506102f260048036038101906102ed9190612673565b610ac3565b6040516102ff919061261b565b60405180910390f35b34801561031457600080fd5b5061031d610b73565b60405161032a9190612a0a565b60405180910390f35b34801561033f57600080fd5b5061035a60048036038101906103559190612673565b610bb3565b60405161036791906126e1565b60405180910390f35b34801561037c57600080fd5b50610385610c65565b6040516103929190612a34565b60405180910390f35b3480156103a757600080fd5b506103c260048036038101906103bd9190612a4f565b610c76565b6040516103cf9190612a34565b60405180910390f35b3480156103e457600080fd5b506103ed610d2e565b005b3480156103fb57600080fd5b50610404610d42565b6040516104119190612a34565b60405180910390f35b34801561042657600080fd5b5061042f610d6a565b60405161043c91906126e1565b60405180910390f35b34801561045157600080fd5b5061045a610d94565b604051610467919061261b565b60405180910390f35b34801561047c57600080fd5b5061049760048036038101906104929190612673565b610e26565b6040516104a49190612af3565b60405180910390f35b3480156104b957600080fd5b506104d460048036038101906104cf9190612b3a565b610f08565b005b3480156104e257600080fd5b506104fd60048036038101906104f89190612673565b610f1e565b60405161050a91906126e1565b60405180910390f35b61051b610f51565b6040516105289190612a34565b60405180910390f35b34801561053d57600080fd5b5061055860048036038101906105539190612c2f565b611151565b005b34801561056657600080fd5b50610581600480360381019061057c9190612673565b6111b3565b60405161058e919061261b565b60405180910390f35b3480156105a357600080fd5b506105be60048036038101906105b99190612cb2565b6112c6565b6040516105cb9190612567565b60405180910390f35b3480156105e057600080fd5b506105fb60048036038101906105f69190612a4f565b61135a565b005b60007f80ac58cd000000000000000000000000000000000000000000000000000000007bffffffffffffffffffffffffffffffffffffffffffffffffffffffff1916827bffffffffffffffffffffffffffffffffffffffffffffffffffffffff191614806106c857507f5b5e139f000000000000000000000000000000000000000000000000000000007bffffffffffffffffffffffffffffffffffffffffffffffffffffffff1916827bffffffffffffffffffffffffffffffffffffffffffffffffffffffff1916145b806106d857506106d7826113de565b5b9050919050565b6060600080546106ee90612d21565b80601f016020809104026020016040519081016040528092919081815260200182805461071a90612d21565b80156107675780601f1061073c57610100808354040283529160200191610767565b820191906000526020600020905b81548152906001019060200180831161074a57829003601f168201915b5050505050905090565b600061077c82611448565b6004600083815260200190815260200160002060009054906101000a900473ffffffffffffffffffffffffffffffffffffffff169050919050565b60006107c282610bb3565b90508073ffffffffffffffffffffffffffffffffffffffff168373ffffffffffffffffffffffffffffffffffffffff161415610833576040517f08c379a000000000000000000000000000000000000000000000000000000000815260040161082a90612dc5565b60405180910390fd5b8073ffffffffffffffffffffffffffffffffffffffff16610852611493565b73ffffffffffffffffffffffffffffffffffffffff16148061088157506108808161087b611493565b6112c6565b5b6108c0576040517f08c379a00000000000000000000000000000000000000000000000000000000081526004016108b790612e57565b60405180910390fd5b6108ca838361149b565b505050565b7f000000000000000000000000000000000000000000000000000000000000000073ffffffffffffffffffffffffffffffffffffffff163373ffffffffffffffffffffffffffffffffffffffff161461098157337f00000000000000000000000000000000000000000000000000000000000000006040517f1cf993f4000000000000000000000000000000000000000000000000000000008152600401610978929190612e77565b60405180910390fd5b61098b8282611554565b5050565b6109a061099a611493565b826116ea565b6109df576040517f08c379a00000000000000000000000000000000000000000000000000000000081526004016109d690612f12565b60405180910390fd5b6109ea83838361177f565b505050565b6109f76119e6565b600047905060003373ffffffffffffffffffffffffffffffffffffffff1682604051610a2290612f63565b60006040518083038185875af1925050503d8060008114610a5f576040519150601f19603f3d011682016040523d82523d6000602084013e610a64565b606091505b5050905080610a9f576040517ff4ec593000000000000000000000000000000000000000000000000000000000815260040160405180910390fd5b5050565b610abe83838360405180602001604052806000815250611151565b505050565b6060600a8281548110610ad957610ad8612f78565b5b906000526020600020018054610aee90612d21565b80601f0160208091040260200160405190810160405280929190818152602001828054610b1a90612d21565b8015610b675780601f10610b3c57610100808354040283529160200191610b67565b820191906000526020600020905b815481529060010190602001808311610b4a57829003601f168201915b50505050509050919050565b610b7b6123ee565b6040518060c0016040528060088152602001601481526020016023815260200160328152602001604b81526020016064815250905090565b6000806002600084815260200190815260200160002060009054906101000a900473ffffffffffffffffffffffffffffffffffffffff169050600073ffffffffffffffffffffffffffffffffffffffff168173ffffffffffffffffffffffffffffffffffffffff161415610c5c576040517f08c379a0000000000000000000000000000000000000000000000000000000008152600401610c5390612ff3565b60405180910390fd5b80915050919050565b6000610c716008611a64565b905090565b60008073ffffffffffffffffffffffffffffffffffffffff168273ffffffffffffffffffffffffffffffffffffffff161415610ce7576040517f08c379a0000000000000000000000000000000000000000000000000000000008152600401610cde90613085565b60405180910390fd5b600360008373ffffffffffffffffffffffffffffffffffffffff1673ffffffffffffffffffffffffffffffffffffffff168152602001908152602001600020549050919050565b610d366119e6565b610d406000611a72565b565b60007f0000000000000000000000000000000000000000000000000000000000000000905090565b6000600760009054906101000a900473ffffffffffffffffffffffffffffffffffffffff16905090565b606060018054610da390612d21565b80601f0160208091040260200160405190810160405280929190818152602001828054610dcf90612d21565b8015610e1c5780601f10610df157610100808354040283529160200191610e1c565b820191906000526020600020905b815481529060010190602001808311610dff57829003601f168201915b5050505050905090565b600080600090506000610e37610b73565b905060005b6006811015610ed057828510158015610e765750818160068110610e6357610e62612f78565b5b602002015183610e7391906130d4565b85105b15610e9857806005811115610e8e57610e8d612a7c565b5b9350505050610f03565b818160068110610eab57610eaa612f78565b5b602002015183610ebb91906130d4565b92508080610ec89061312a565b915050610e3c565b506040517f3af7eabb00000000000000000000000000000000000000000000000000000000815260040160405180910390fd5b919050565b610f1a610f13611493565b8383611b38565b5050565b60096020528060005260406000206000915054906101000a900473ffffffffffffffffffffffffffffffffffffffff1681565b60007f0000000000000000000000000000000000000000000000000000000000000000341015610fad576040517fd2bc44e100000000000000000000000000000000000000000000000000000000815260040160405180910390fd5b7f000000000000000000000000000000000000000000000000000000000000000073ffffffffffffffffffffffffffffffffffffffff16635d3b1d307f00000000000000000000000000000000000000000000000000000000000000007f000000000000000000000000000000000000000000000000000000000000000060037f000000000000000000000000000000000000000000000000000000000000000060016040518663ffffffff1660e01b81526004016110709594939291906131eb565b602060405180830381600087803b15801561108a57600080fd5b505af115801561109e573d6000803e3d6000fd5b505050506040513d601f19601f820116820180604052508101906110c29190613253565b9050336009600083815260200190815260200160002060006101000a81548173ffffffffffffffffffffffffffffffffffffffff021916908373ffffffffffffffffffffffffffffffffffffffff160217905550807ff873236e6cc0ecc5be1a9a35c95ee5b8d1ac4cc7bfef0cc5060391d6cc98e26b3360405161114691906126e1565b60405180910390a290565b61116261115c611493565b836116ea565b6111a1576040517f08c379a000000000000000000000000000000000000000000000000000000000815260040161119890612f12565b60405180910390fd5b6111ad84848484611ca5565b50505050565b60606111be82611448565b60006006600084815260200190815260200160002080546111de90612d21565b80601f016020809104026020016040519081016040528092919081815260200182805461120a90612d21565b80156112575780601f1061122c57610100808354040283529160200191611257565b820191906000526020600020905b81548152906001019060200180831161123a57829003601f168201915b505050505090506000611268611d01565b905060008151141561127e5781925050506112c1565b6000825111156112b357808260405160200161129b9291906132bc565b604051602081830303815290604052925050506112c1565b6112bc84611d18565b925050505b919050565b6000600560008473ffffffffffffffffffffffffffffffffffffffff1673ffffffffffffffffffffffffffffffffffffffff16815260200190815260200160002060008373ffffffffffffffffffffffffffffffffffffffff1673ffffffffffffffffffffffffffffffffffffffff16815260200190815260200160002060009054906101000a900460ff16905092915050565b6113626119e6565b600073ffffffffffffffffffffffffffffffffffffffff168173ffffffffffffffffffffffffffffffffffffffff1614156113d2576040517f08c379a00000000000000000000000000000000000000000000000000000000081526004016113c990613352565b60405180910390fd5b6113db81611a72565b50565b60007f01ffc9a7000000000000000000000000000000000000000000000000000000007bffffffffffffffffffffffffffffffffffffffffffffffffffffffff1916827bffffffffffffffffffffffffffffffffffffffffffffffffffffffff1916149050919050565b61145181611d80565b611490576040517f08c379a000000000000000000000000000000000000000000000000000000000815260040161148790612ff3565b60405180910390fd5b50565b600033905090565b816004600083815260200190815260200160002060006101000a81548173ffffffffffffffffffffffffffffffffffffffff021916908373ffffffffffffffffffffffffffffffffffffffff160217905550808273ffffffffffffffffffffffffffffffffffffffff1661150e83610bb3565b73ffffffffffffffffffffffffffffffffffffffff167f8c5be1e5ebec7d5bd14f71427d1e84f3dd0314c0f7b2291e5b200ac8c7c3b92560405160405180910390a45050565b60006009600084815260200190815260200160002060009054906101000a900473ffffffffffffffffffffffffffffffffffffffff1690506115966008611dec565b60006115a26008611a64565b905060006064846000815181106115bc576115bb612f78565b5b60200260200101516115ce91906133a1565b905060006115db82610e26565b90506115e78484611e02565b6116a983600a836005811115611600576115ff612a7c565b5b8154811061161157611610612f78565b5b90600052602060002001805461162690612d21565b80601f016020809104026020016040519081016040528092919081815260200182805461165290612d21565b801561169f5780601f106116745761010080835404028352916020019161169f565b820191906000526020600020905b81548152906001019060200180831161168257829003601f168201915b5050505050611e20565b7f8a269f26b688e110e9cbd887d163dab35cae678fa353a0292de532c0cac1ecdc81856040516116da9291906133d2565b60405180910390a1505050505050565b6000806116f683610bb3565b90508073ffffffffffffffffffffffffffffffffffffffff168473ffffffffffffffffffffffffffffffffffffffff161480611738575061173781856112c6565b5b8061177657508373ffffffffffffffffffffffffffffffffffffffff1661175e84610771565b73ffffffffffffffffffffffffffffffffffffffff16145b91505092915050565b8273ffffffffffffffffffffffffffffffffffffffff1661179f82610bb3565b73ffffffffffffffffffffffffffffffffffffffff16146117f5576040517f08c379a00000000000000000000000000000000000000000000000000000000081526004016117ec9061346d565b60405180910390fd5b600073ffffffffffffffffffffffffffffffffffffffff168273ffffffffffffffffffffffffffffffffffffffff161415611865576040517f08c379a000000000000000000000000000000000000000000000000000000000815260040161185c906134ff565b60405180910390fd5b611870838383611e94565b61187b60008261149b565b6001600360008573ffffffffffffffffffffffffffffffffffffffff1673ffffffffffffffffffffffffffffffffffffffff16815260200190815260200160002060008282546118cb919061351f565b925050819055506001600360008473ffffffffffffffffffffffffffffffffffffffff1673ffffffffffffffffffffffffffffffffffffffff168152602001908152602001600020600082825461192291906130d4565b92505081905550816002600083815260200190815260200160002060006101000a81548173ffffffffffffffffffffffffffffffffffffffff021916908373ffffffffffffffffffffffffffffffffffffffff160217905550808273ffffffffffffffffffffffffffffffffffffffff168473ffffffffffffffffffffffffffffffffffffffff167fddf252ad1be2c89b69c2b068fc378daa952ba7f163c4a11628f55a4df523b3ef60405160405180910390a46119e1838383611e99565b505050565b6119ee611493565b73ffffffffffffffffffffffffffffffffffffffff16611a0c610d6a565b73ffffffffffffffffffffffffffffffffffffffff1614611a62576040517f08c379a0000000000000000000000000000000000000000000000000000000008152600401611a599061359f565b60405180910390fd5b565b600081600001549050919050565b6000600760009054906101000a900473ffffffffffffffffffffffffffffffffffffffff16905081600760006101000a81548173ffffffffffffffffffffffffffffffffffffffff021916908373ffffffffffffffffffffffffffffffffffffffff1602179055508173ffffffffffffffffffffffffffffffffffffffff168173ffffffffffffffffffffffffffffffffffffffff167f8be0079c531659141344cd1fd0a4f28419497f9722a3daafe3b4186f6b6457e060405160405180910390a35050565b8173ffffffffffffffffffffffffffffffffffffffff168373ffffffffffffffffffffffffffffffffffffffff161415611ba7576040517f08c379a0000000000000000000000000000000000000000000000000000000008152600401611b9e9061360b565b60405180910390fd5b80600560008573ffffffffffffffffffffffffffffffffffffffff1673ffffffffffffffffffffffffffffffffffffffff16815260200190815260200160002060008473ffffffffffffffffffffffffffffffffffffffff1673ffffffffffffffffffffffffffffffffffffffff16815260200190815260200160002060006101000a81548160ff0219169083151502179055508173ffffffffffffffffffffffffffffffffffffffff168373ffffffffffffffffffffffffffffffffffffffff167f17307eab39ab6107e8899845ad3d59bd9653f200f220920489ca2b5937696c3183604051611c989190612567565b60405180910390a3505050565b611cb084848461177f565b611cbc84848484611e9e565b611cfb576040517f08c379a0000000000000000000000000000000000000000000000000000000008152600401611cf29061369d565b60405180910390fd5b50505050565b606060405180602001604052806000815250905090565b6060611d2382611448565b6000611d2d611d01565b90506000815111611d4d5760405180602001604052806000815250611d78565b80611d5784612035565b604051602001611d689291906132bc565b6040516020818303038152906040525b915050919050565b60008073ffffffffffffffffffffffffffffffffffffffff166002600084815260200190815260200160002060009054906101000a900473ffffffffffffffffffffffffffffffffffffffff1673ffffffffffffffffffffffffffffffffffffffff1614159050919050565b6001816000016000828254019250508190555050565b611e1c828260405180602001604052806000815250612196565b5050565b611e2982611d80565b611e68576040517f08c379a0000000000000000000000000000000000000000000000000000000008152600401611e5f9061372f565b60405180910390fd5b80600660008481526020019081526020016000209080519060200190611e8f929190612410565b505050565b505050565b505050565b6000611ebf8473ffffffffffffffffffffffffffffffffffffffff166121f1565b15612028578373ffffffffffffffffffffffffffffffffffffffff1663150b7a02611ee8611493565b8786866040518563ffffffff1660e01b8152600401611f0a94939291906137a4565b602060405180830381600087803b158015611f2457600080fd5b505af1925050508015611f5557506040513d601f19601f82011682018060405250810190611f529190613805565b60015b611fd8573d8060008114611f85576040519150601f19603f3d011682016040523d82523d6000602084013e611f8a565b606091505b50600081511415611fd0576040517f08c379a0000000000000000000000000000000000000000000000000000000008152600401611fc79061369d565b60405180910390fd5b805181602001fd5b63150b7a0260e01b7bffffffffffffffffffffffffffffffffffffffffffffffffffffffff1916817bffffffffffffffffffffffffffffffffffffffffffffffffffffffff19161491505061202d565b600190505b949350505050565b6060600082141561207d576040518060400160405280600181526020017f30000000000000000000000000000000000000000000000000000000000000008152509050612191565b600082905060005b600082146120af5780806120989061312a565b915050600a826120a89190613832565b9150612085565b60008167ffffffffffffffff8111156120cb576120ca61276d565b5b6040519080825280601f01601f1916602001820160405280156120fd5781602001600182028036833780820191505090505b5090505b6000851461218a57600182612116919061351f565b9150600a8561212591906133a1565b603061213191906130d4565b60f81b81838151811061214757612146612f78565b5b60200101907effffffffffffffffffffffffffffffffffffffffffffffffffffffffffffff1916908160001a905350600a856121839190613832565b9450612101565b8093505050505b919050565b6121a08383612214565b6121ad6000848484611e9e565b6121ec576040517f08c379a00000000000000000000000000000000000000000000000000000000081526004016121e39061369d565b60405180910390fd5b505050565b6000808273ffffffffffffffffffffffffffffffffffffffff163b119050919050565b600073ffffffffffffffffffffffffffffffffffffffff168273ffffffffffffffffffffffffffffffffffffffff161415612284576040517f08c379a000000000000000000000000000000000000000000000000000000000815260040161227b906138af565b60405180910390fd5b61228d81611d80565b156122cd576040517f08c379a00000000000000000000000000000000000000000000000000000000081526004016122c49061391b565b60405180910390fd5b6122d960008383611e94565b6001600360008473ffffffffffffffffffffffffffffffffffffffff1673ffffffffffffffffffffffffffffffffffffffff168152602001908152602001600020600082825461232991906130d4565b92505081905550816002600083815260200190815260200160002060006101000a81548173ffffffffffffffffffffffffffffffffffffffff021916908373ffffffffffffffffffffffffffffffffffffffff160217905550808273ffffffffffffffffffffffffffffffffffffffff16600073ffffffffffffffffffffffffffffffffffffffff167fddf252ad1be2c89b69c2b068fc378daa952ba7f163c4a11628f55a4df523b3ef60405160405180910390a46123ea60008383611e99565b5050565b6040518060c00160405280600690602082028036833780820191505090505090565b82805461241c90612d21565b90600052602060002090601f01602090048101928261243e5760008555612485565b82601f1061245757805160ff1916838001178555612485565b82800160010185558215612485579182015b82811115612484578251825591602001919060010190612469565b5b5090506124929190612496565b5090565b5b808211156124af576000816000905550600101612497565b5090565b6000604051905090565b600080fd5b600080fd5b60007fffffffff0000000000000000000000000000000000000000000000000000000082169050919050565b6124fc816124c7565b811461250757600080fd5b50565b600081359050612519816124f3565b92915050565b600060208284031215612535576125346124bd565b5b60006125438482850161250a565b91505092915050565b60008115159050919050565b6125618161254c565b82525050565b600060208201905061257c6000830184612558565b92915050565b600081519050919050565b600082825260208201905092915050565b60005b838110156125bc5780820151818401526020810190506125a1565b838111156125cb576000848401525b50505050565b6000601f19601f8301169050919050565b60006125ed82612582565b6125f7818561258d565b935061260781856020860161259e565b612610816125d1565b840191505092915050565b6000602082019050818103600083015261263581846125e2565b905092915050565b6000819050919050565b6126508161263d565b811461265b57600080fd5b50565b60008135905061266d81612647565b92915050565b600060208284031215612689576126886124bd565b5b60006126978482850161265e565b91505092915050565b600073ffffffffffffffffffffffffffffffffffffffff82169050919050565b60006126cb826126a0565b9050919050565b6126db816126c0565b82525050565b60006020820190506126f660008301846126d2565b92915050565b612705816126c0565b811461271057600080fd5b50565b600081359050612722816126fc565b92915050565b6000806040838503121561273f5761273e6124bd565b5b600061274d85828601612713565b925050602061275e8582860161265e565b9150509250929050565b600080fd5b7f4e487b7100000000000000000000000000000000000000000000000000000000600052604160045260246000fd5b6127a5826125d1565b810181811067ffffffffffffffff821117156127c4576127c361276d565b5b80604052505050565b60006127d76124b3565b90506127e3828261279c565b919050565b600067ffffffffffffffff8211156128035761280261276d565b5b602082029050602081019050919050565b600080fd5b600061282c612827846127e8565b6127cd565b9050808382526020820190506020840283018581111561284f5761284e612814565b5b835b818110156128785780612864888261265e565b845260208401935050602081019050612851565b5050509392505050565b600082601f83011261289757612896612768565b5b81356128a7848260208601612819565b91505092915050565b600080604083850312156128c7576128c66124bd565b5b60006128d58582860161265e565b925050602083013567ffffffffffffffff8111156128f6576128f56124c2565b5b61290285828601612882565b9150509250929050565b600080600060608486031215612925576129246124bd565b5b600061293386828701612713565b935050602061294486828701612713565b92505060406129558682870161265e565b9150509250925092565b600060069050919050565b600081905092915050565b6000819050919050565b6129888161263d565b82525050565b600061299a838361297f565b60208301905092915050565b6000602082019050919050565b6129bc8161295f565b6129c6818461296a565b92506129d182612975565b8060005b83811015612a025781516129e9878261298e565b96506129f4836129a6565b9250506001810190506129d5565b505050505050565b600060c082019050612a1f60008301846129b3565b92915050565b612a2e8161263d565b82525050565b6000602082019050612a496000830184612a25565b92915050565b600060208284031215612a6557612a646124bd565b5b6000612a7384828501612713565b91505092915050565b7f4e487b7100000000000000000000000000000000000000000000000000000000600052602160045260246000fd5b60068110612abc57612abb612a7c565b5b50565b6000819050612acd82612aab565b919050565b6000612add82612abf565b9050919050565b612aed81612ad2565b82525050565b6000602082019050612b086000830184612ae4565b92915050565b612b178161254c565b8114612b2257600080fd5b50565b600081359050612b3481612b0e565b92915050565b60008060408385031215612b5157612b506124bd565b5b6000612b5f85828601612713565b9250506020612b7085828601612b25565b9150509250929050565b600080fd5b600067ffffffffffffffff821115612b9a57612b9961276d565b5b612ba3826125d1565b9050602081019050919050565b82818337600083830152505050565b6000612bd2612bcd84612b7f565b6127cd565b905082815260208101848484011115612bee57612bed612b7a565b5b612bf9848285612bb0565b509392505050565b600082601f830112612c1657612c15612768565b5b8135612c26848260208601612bbf565b91505092915050565b60008060008060808587031215612c4957612c486124bd565b5b6000612c5787828801612713565b9450506020612c6887828801612713565b9350506040612c798782880161265e565b925050606085013567ffffffffffffffff811115612c9a57612c996124c2565b5b612ca687828801612c01565b91505092959194509250565b60008060408385031215612cc957612cc86124bd565b5b6000612cd785828601612713565b9250506020612ce885828601612713565b9150509250929050565b7f4e487b7100000000000000000000000000000000000000000000000000000000600052602260045260246000fd5b60006002820490506001821680612d3957607f821691505b60208210811415612d4d57612d4c612cf2565b5b50919050565b7f4552433732313a20617070726f76616c20746f2063757272656e74206f776e6560008201527f7200000000000000000000000000000000000000000000000000000000000000602082015250565b6000612daf60218361258d565b9150612dba82612d53565b604082019050919050565b60006020820190508181036000830152612dde81612da2565b9050919050565b7f4552433732313a20617070726f76652063616c6c6572206973206e6f7420746f60008201527f6b656e206f776e6572206e6f7220617070726f76656420666f7220616c6c0000602082015250565b6000612e41603e8361258d565b9150612e4c82612de5565b604082019050919050565b60006020820190508181036000830152612e7081612e34565b9050919050565b6000604082019050612e8c60008301856126d2565b612e9960208301846126d2565b9392505050565b7f4552433732313a2063616c6c6572206973206e6f7420746f6b656e206f776e6560008201527f72206e6f7220617070726f766564000000000000000000000000000000000000602082015250565b6000612efc602e8361258d565b9150612f0782612ea0565b604082019050919050565b60006020820190508181036000830152612f2b81612eef565b9050919050565b600081905092915050565b50565b6000612f4d600083612f32565b9150612f5882612f3d565b600082019050919050565b6000612f6e82612f40565b9150819050919050565b7f4e487b7100000000000000000000000000000000000000000000000000000000600052603260045260246000fd5b7f4552433732313a20696e76616c696420746f6b656e2049440000000000000000600082015250565b6000612fdd60188361258d565b9150612fe882612fa7565b602082019050919050565b6000602082019050818103600083015261300c81612fd0565b9050919050565b7f4552433732313a2061646472657373207a65726f206973206e6f74206120766160008201527f6c6964206f776e65720000000000000000000000000000000000000000000000602082015250565b600061306f60298361258d565b915061307a82613013565b604082019050919050565b6000602082019050818103600083015261309e81613062565b9050919050565b7f4e487b7100000000000000000000000000000000000000000000000000000000600052601160045260246000fd5b60006130df8261263d565b91506130ea8361263d565b9250827fffffffffffffffffffffffffffffffffffffffffffffffffffffffffffffffff0382111561311f5761311e6130a5565b5b828201905092915050565b60006131358261263d565b91507fffffffffffffffffffffffffffffffffffffffffffffffffffffffffffffffff821415613168576131676130a5565b5b600182019050919050565b6000819050919050565b61318681613173565b82525050565b600067ffffffffffffffff82169050919050565b6131a98161318c565b82525050565b600061ffff82169050919050565b6131c6816131af565b82525050565b600063ffffffff82169050919050565b6131e5816131cc565b82525050565b600060a082019050613200600083018861317d565b61320d60208301876131a0565b61321a60408301866131bd565b61322760608301856131dc565b61323460808301846131dc565b9695505050505050565b60008151905061324d81612647565b92915050565b600060208284031215613269576132686124bd565b5b60006132778482850161323e565b91505092915050565b600081905092915050565b600061329682612582565b6132a08185613280565b93506132b081856020860161259e565b80840191505092915050565b60006132c8828561328b565b91506132d4828461328b565b91508190509392505050565b7f4f776e61626c653a206e6577206f776e657220697320746865207a65726f206160008201527f6464726573730000000000000000000000000000000000000000000000000000602082015250565b600061333c60268361258d565b9150613347826132e0565b604082019050919050565b6000602082019050818103600083015261336b8161332f565b9050919050565b7f4e487b7100000000000000000000000000000000000000000000000000000000600052601260045260246000fd5b60006133ac8261263d565b91506133b78361263d565b9250826133c7576133c6613372565b5b828206905092915050565b60006040820190506133e76000830185612ae4565b6133f460208301846126d2565b9392505050565b7f4552433732313a207472616e736665722066726f6d20696e636f72726563742060008201527f6f776e6572000000000000000000000000000000000000000000000000000000602082015250565b600061345760258361258d565b9150613462826133fb565b604082019050919050565b600060208201905081810360008301526134868161344a565b9050919050565b7f4552433732313a207472616e7366657220746f20746865207a65726f2061646460008201527f7265737300000000000000000000000000000000000000000000000000000000602082015250565b60006134e960248361258d565b91506134f48261348d565b604082019050919050565b60006020820190508181036000830152613518816134dc565b9050919050565b600061352a8261263d565b91506135358361263d565b925082821015613548576135476130a5565b5b828203905092915050565b7f4f776e61626c653a2063616c6c6572206973206e6f7420746865206f776e6572600082015250565b600061358960208361258d565b915061359482613553565b602082019050919050565b600060208201905081810360008301526135b88161357c565b9050919050565b7f4552433732313a20617070726f766520746f2063616c6c657200000000000000600082015250565b60006135f560198361258d565b9150613600826135bf565b602082019050919050565b60006020820190508181036000830152613624816135e8565b9050919050565b7f4552433732313a207472616e7366657220746f206e6f6e20455243373231526560008201527f63656976657220696d706c656d656e7465720000000000000000000000000000602082015250565b600061368760328361258d565b91506136928261362b565b604082019050919050565b600060208201905081810360008301526136b68161367a565b9050919050565b7f45524337323155524953746f726167653a2055524920736574206f66206e6f6e60008201527f6578697374656e7420746f6b656e000000000000000000000000000000000000602082015250565b6000613719602e8361258d565b9150613724826136bd565b604082019050919050565b600060208201905081810360008301526137488161370c565b9050919050565b600081519050919050565b600082825260208201905092915050565b60006137768261374f565b613780818561375a565b935061379081856020860161259e565b613799816125d1565b840191505092915050565b60006080820190506137b960008301876126d2565b6137c660208301866126d2565b6137d36040830185612a25565b81810360608301526137e5818461376b565b905095945050505050565b6000815190506137ff816124f3565b92915050565b60006020828403121561381b5761381a6124bd565b5b6000613829848285016137f0565b91505092915050565b600061383d8261263d565b91506138488361263d565b92508261385857613857613372565b5b828204905092915050565b7f4552433732313a206d696e7420746f20746865207a65726f2061646472657373600082015250565b600061389960208361258d565b91506138a482613863565b602082019050919050565b600060208201905081810360008301526138c88161388c565b9050919050565b7f4552433732313a20746f6b656e20616c7265616479206d696e74656400000000600082015250565b6000613905601c8361258d565b9150613910826138cf565b602082019050919050565b60006020820190508181036000830152613934816138f8565b905091905056fea264697066735822122026fbb26a656e44d23e4e294513591884ab465baec158a45f65974cb540690b6664736f6c63430008080033",
  "linkReferences": {},
  "deployedLinkReferences": {}
}