{
  "_format": "hh-sol-artifact-1",
  "contractName": "InsideOutNFT",
  "sourceName": "contracts/InsideOutNFT.sol",
  "abi": [
    {
      "inputs": [
        {
          "internalType": "address",
          "name": "vrfCoordinatorV2",
          "type": "address"
        },
        {
          "internalType": "uint64",
          "name": "subscriptionId",
          "type": "uint64"
        },
        {
          "internalType": "bytes32",
          "name": "gasLane",
          "type": "bytes32"
        },
        {
          "internalType": "uint32",
          "name": "callbackGasLimit",
          "type": "uint32"
        },
        {
          "internalType": "string[5]",
          "name": "characterTokenUris",
          "type": "string[5]"
        },
        {
          "internalType": "uint256",
          "name": "mintFee",
          "type": "uint256"
        }
      ],
      "stateMutability": "nonpayable",
      "type": "constructor"
    },
    {
      "inputs": [],
      "name": "InsideOutNFT__NeedMoreETHSent",
      "type": "error"
    },
    {
      "inputs": [],
      "name": "InsideOutNFT__RangeOutOfBounds",
      "type": "error"
    },
    {
      "inputs": [],
      "name": "InsideOutNFT__TransferFailed",
      "type": "error"
    },
    {
      "inputs": [
        {
          "internalType": "address",
          "name": "have",
          "type": "address"
        },
        {
          "internalType": "address",
          "name": "want",
          "type": "address"
        }
      ],
      "name": "OnlyCoordinatorCanFulfill",
      "type": "error"
    },
    {
      "anonymous": false,
      "inputs": [
        {
          "indexed": true,
          "internalType": "address",
          "name": "owner",
          "type": "address"
        },
        {
          "indexed": true,
          "internalType": "address",
          "name": "approved",
          "type": "address"
        },
        {
          "indexed": true,
          "internalType": "uint256",
          "name": "tokenId",
          "type": "uint256"
        }
      ],
      "name": "Approval",
      "type": "event"
    },
    {
      "anonymous": false,
      "inputs": [
        {
          "indexed": true,
          "internalType": "address",
          "name": "owner",
          "type": "address"
        },
        {
          "indexed": true,
          "internalType": "address",
          "name": "operator",
          "type": "address"
        },
        {
          "indexed": false,
          "internalType": "bool",
          "name": "approved",
          "type": "bool"
        }
      ],
      "name": "ApprovalForAll",
      "type": "event"
    },
    {
      "anonymous": false,
      "inputs": [
        {
          "indexed": false,
          "internalType": "enum InsideOutNFT.Character",
          "name": "character",
          "type": "uint8"
        },
        {
          "indexed": false,
          "internalType": "address",
          "name": "minter",
          "type": "address"
        }
      ],
      "name": "NftMinted",
      "type": "event"
    },
    {
      "anonymous": false,
      "inputs": [
        {
          "indexed": true,
          "internalType": "uint256",
          "name": "requestId",
          "type": "uint256"
        },
        {
          "indexed": false,
          "internalType": "address",
          "name": "requester",
          "type": "address"
        }
      ],
      "name": "NftRequested",
      "type": "event"
    },
    {
      "anonymous": false,
      "inputs": [
        {
          "indexed": true,
          "internalType": "address",
          "name": "previousOwner",
          "type": "address"
        },
        {
          "indexed": true,
          "internalType": "address",
          "name": "newOwner",
          "type": "address"
        }
      ],
      "name": "OwnershipTransferred",
      "type": "event"
    },
    {
      "anonymous": false,
      "inputs": [
        {
          "indexed": true,
          "internalType": "address",
          "name": "from",
          "type": "address"
        },
        {
          "indexed": true,
          "internalType": "address",
          "name": "to",
          "type": "address"
        },
        {
          "indexed": true,
          "internalType": "uint256",
          "name": "tokenId",
          "type": "uint256"
        }
      ],
      "name": "Transfer",
      "type": "event"
    },
    {
      "inputs": [
        {
          "internalType": "address",
          "name": "to",
          "type": "address"
        },
        {
          "internalType": "uint256",
          "name": "tokenId",
          "type": "uint256"
        }
      ],
      "name": "approve",
      "outputs": [],
      "stateMutability": "nonpayable",
      "type": "function"
    },
    {
      "inputs": [
        {
          "internalType": "address",
          "name": "owner",
          "type": "address"
        }
      ],
      "name": "balanceOf",
      "outputs": [
        {
          "internalType": "uint256",
          "name": "",
          "type": "uint256"
        }
      ],
      "stateMutability": "view",
      "type": "function"
    },
    {
      "inputs": [
        {
          "internalType": "uint256",
          "name": "tokenId",
          "type": "uint256"
        }
      ],
      "name": "getApproved",
      "outputs": [
        {
          "internalType": "address",
          "name": "",
          "type": "address"
        }
      ],
      "stateMutability": "view",
      "type": "function"
    },
    {
      "inputs": [],
      "name": "getChanceArray",
      "outputs": [
        {
          "internalType": "uint256[5]",
          "name": "",
          "type": "uint256[5]"
        }
      ],
      "stateMutability": "pure",
      "type": "function"
    },
    {
      "inputs": [
        {
          "internalType": "uint256",
          "name": "moddedRng",
          "type": "uint256"
        }
      ],
      "name": "getCharacterFromModdedRng",
      "outputs": [
        {
          "internalType": "enum InsideOutNFT.Character",
          "name": "",
          "type": "uint8"
        }
      ],
      "stateMutability": "pure",
      "type": "function"
    },
    {
      "inputs": [
        {
          "internalType": "uint256",
          "name": "index",
          "type": "uint256"
        }
      ],
      "name": "getCharacterTokenUris",
      "outputs": [
        {
          "internalType": "string",
          "name": "",
          "type": "string"
        }
      ],
      "stateMutability": "view",
      "type": "function"
    },
    {
      "inputs": [],
      "name": "getMintFee",
      "outputs": [
        {
          "internalType": "uint256",
          "name": "",
          "type": "uint256"
        }
      ],
      "stateMutability": "view",
      "type": "function"
    },
    {
      "inputs": [],
      "name": "getTokenCounter",
      "outputs": [
        {
          "internalType": "uint256",
          "name": "",
          "type": "uint256"
        }
      ],
      "stateMutability": "view",
      "type": "function"
    },
    {
      "inputs": [
        {
          "internalType": "address",
          "name": "owner",
          "type": "address"
        },
        {
          "internalType": "address",
          "name": "operator",
          "type": "address"
        }
      ],
      "name": "isApprovedForAll",
      "outputs": [
        {
          "internalType": "bool",
          "name": "",
          "type": "bool"
        }
      ],
      "stateMutability": "view",
      "type": "function"
    },
    {
      "inputs": [],
      "name": "name",
      "outputs": [
        {
          "internalType": "string",
          "name": "",
          "type": "string"
        }
      ],
      "stateMutability": "view",
      "type": "function"
    },
    {
      "inputs": [],
      "name": "owner",
      "outputs": [
        {
          "internalType": "address",
          "name": "",
          "type": "address"
        }
      ],
      "stateMutability": "view",
      "type": "function"
    },
    {
      "inputs": [
        {
          "internalType": "uint256",
          "name": "tokenId",
          "type": "uint256"
        }
      ],
      "name": "ownerOf",
      "outputs": [
        {
          "internalType": "address",
          "name": "",
          "type": "address"
        }
      ],
      "stateMutability": "view",
      "type": "function"
    },
    {
      "inputs": [
        {
          "internalType": "uint256",
          "name": "requestId",
          "type": "uint256"
        },
        {
          "internalType": "uint256[]",
          "name": "randomWords",
          "type": "uint256[]"
        }
      ],
      "name": "rawFulfillRandomWords",
      "outputs": [],
      "stateMutability": "nonpayable",
      "type": "function"
    },
    {
      "inputs": [],
      "name": "renounceOwnership",
      "outputs": [],
      "stateMutability": "nonpayable",
      "type": "function"
    },
    {
      "inputs": [],
      "name": "requestNft",
      "outputs": [
        {
          "internalType": "uint256",
          "name": "requestId",
          "type": "uint256"
        }
      ],
      "stateMutability": "payable",
      "type": "function"
    },
    {
      "inputs": [
        {
          "internalType": "uint256",
          "name": "",
          "type": "uint256"
        }
      ],
      "name": "s_requestIdToSender",
      "outputs": [
        {
          "internalType": "address",
          "name": "",
          "type": "address"
        }
      ],
      "stateMutability": "view",
      "type": "function"
    },
    {
      "inputs": [
        {
          "internalType": "address",
          "name": "from",
          "type": "address"
        },
        {
          "internalType": "address",
          "name": "to",
          "type": "address"
        },
        {
          "internalType": "uint256",
          "name": "tokenId",
          "type": "uint256"
        }
      ],
      "name": "safeTransferFrom",
      "outputs": [],
      "stateMutability": "nonpayable",
      "type": "function"
    },
    {
      "inputs": [
        {
          "internalType": "address",
          "name": "from",
          "type": "address"
        },
        {
          "internalType": "address",
          "name": "to",
          "type": "address"
        },
        {
          "internalType": "uint256",
          "name": "tokenId",
          "type": "uint256"
        },
        {
          "internalType": "bytes",
          "name": "data",
          "type": "bytes"
        }
      ],
      "name": "safeTransferFrom",
      "outputs": [],
      "stateMutability": "nonpayable",
      "type": "function"
    },
    {
      "inputs": [
        {
          "internalType": "address",
          "name": "operator",
          "type": "address"
        },
        {
          "internalType": "bool",
          "name": "approved",
          "type": "bool"
        }
      ],
      "name": "setApprovalForAll",
      "outputs": [],
      "stateMutability": "nonpayable",
      "type": "function"
    },
    {
      "inputs": [
        {
          "internalType": "bytes4",
          "name": "interfaceId",
          "type": "bytes4"
        }
      ],
      "name": "supportsInterface",
      "outputs": [
        {
          "internalType": "bool",
          "name": "",
          "type": "bool"
        }
      ],
      "stateMutability": "view",
      "type": "function"
    },
    {
      "inputs": [],
      "name": "symbol",
      "outputs": [
        {
          "internalType": "string",
          "name": "",
          "type": "string"
        }
      ],
      "stateMutability": "view",
      "type": "function"
    },
    {
      "inputs": [
        {
          "internalType": "uint256",
          "name": "tokenId",
          "type": "uint256"
        }
      ],
      "name": "tokenURI",
      "outputs": [
        {
          "internalType": "string",
          "name": "",
          "type": "string"
        }
      ],
      "stateMutability": "view",
      "type": "function"
    },
    {
      "inputs": [
        {
          "internalType": "address",
          "name": "from",
          "type": "address"
        },
        {
          "internalType": "address",
          "name": "to",
          "type": "address"
        },
        {
          "internalType": "uint256",
          "name": "tokenId",
          "type": "uint256"
        }
      ],
      "name": "transferFrom",
      "outputs": [],
      "stateMutability": "nonpayable",
      "type": "function"
    },
    {
      "inputs": [
        {
          "internalType": "address",
          "name": "newOwner",
          "type": "address"
        }
      ],
      "name": "transferOwnership",
      "outputs": [],
      "stateMutability": "nonpayable",
      "type": "function"
    },
    {
      "inputs": [],
      "name": "withdraw",
      "outputs": [],
      "stateMutability": "nonpayable",
      "type": "function"
    }
  ],
  "bytecode": "0x6101406040523480156200001257600080fd5b50604051620042ff380380620042ff83398181016040528101906200003891906200080b565b6040518060400160405280600e81526020017f496e73696465204f7574204e46540000000000000000000000000000000000008152506040518060400160405280600481526020017f494e534f00000000000000000000000000000000000000000000000000000000815250878073ffffffffffffffffffffffffffffffffffffffff1660808173ffffffffffffffffffffffffffffffffffffffff1660601b81525050508160009080519060200190620000f59291906200029e565b5080600190805190602001906200010e9291906200029e565b5050506200013162000125620001d060201b60201c565b620001d860201b60201c565b8573ffffffffffffffffffffffffffffffffffffffff1660a08173ffffffffffffffffffffffffffffffffffffffff1660601b815250508467ffffffffffffffff1660c08167ffffffffffffffff1660c01b815250508360e081815250508263ffffffff166101008163ffffffff1660e01b8152505081600a906005620001ba9291906200032f565b508061012081815250505050505050506200092b565b600033905090565b6000600760009054906101000a900473ffffffffffffffffffffffffffffffffffffffff16905081600760006101000a81548173ffffffffffffffffffffffffffffffffffffffff021916908373ffffffffffffffffffffffffffffffffffffffff1602179055508173ffffffffffffffffffffffffffffffffffffffff168173ffffffffffffffffffffffffffffffffffffffff167f8be0079c531659141344cd1fd0a4f28419497f9722a3daafe3b4186f6b6457e060405160405180910390a35050565b828054620002ac90620008f5565b90600052602060002090601f016020900481019282620002d057600085556200031c565b82601f10620002eb57805160ff19168380011785556200031c565b828001600101855582156200031c579182015b828111156200031b578251825591602001919060010190620002fe565b5b5090506200032b919062000396565b5090565b82805482825590600052602060002090810192821562000383579160200282015b8281111562000382578251829080519060200190620003719291906200029e565b509160200191906001019062000350565b5b509050620003929190620003b5565b5090565b5b80821115620003b157600081600090555060010162000397565b5090565b5b80821115620003d95760008181620003cf9190620003dd565b50600101620003b6565b5090565b508054620003eb90620008f5565b6000825580601f10620003ff575062000420565b601f0160209004906000526020600020908101906200041f919062000396565b5b50565b6000604051905090565b600080fd5b600080fd5b600073ffffffffffffffffffffffffffffffffffffffff82169050919050565b6000620004648262000437565b9050919050565b620004768162000457565b81146200048257600080fd5b50565b60008151905062000496816200046b565b92915050565b600067ffffffffffffffff82169050919050565b620004bb816200049c565b8114620004c757600080fd5b50565b600081519050620004db81620004b0565b92915050565b6000819050919050565b620004f681620004e1565b81146200050257600080fd5b50565b6000815190506200051681620004eb565b92915050565b600063ffffffff82169050919050565b62000537816200051c565b81146200054357600080fd5b50565b60008151905062000557816200052c565b92915050565b600080fd5b6000601f19601f8301169050919050565b7f4e487b7100000000000000000000000000000000000000000000000000000000600052604160045260246000fd5b620005ad8262000562565b810181811067ffffffffffffffff82111715620005cf57620005ce62000573565b5b80604052505050565b6000620005e462000423565b9050620005f28282620005a2565b919050565b600067ffffffffffffffff82111562000615576200061462000573565b5b602082029050919050565b600080fd5b600080fd5b600067ffffffffffffffff82111562000648576200064762000573565b5b620006538262000562565b9050602081019050919050565b60005b838110156200068057808201518184015260208101905062000663565b8381111562000690576000848401525b50505050565b6000620006ad620006a7846200062a565b620005d8565b905082815260208101848484011115620006cc57620006cb62000625565b5b620006d984828562000660565b509392505050565b600082601f830112620006f957620006f86200055d565b5b81516200070b84826020860162000696565b91505092915050565b60006200072b6200072584620005f7565b620005d8565b9050806020840283018581111562000748576200074762000620565b5b835b818110156200079657805167ffffffffffffffff8111156200077157620007706200055d565b5b808601620007808982620006e1565b855260208501945050506020810190506200074a565b5050509392505050565b600082601f830112620007b857620007b76200055d565b5b6005620007c784828562000714565b91505092915050565b6000819050919050565b620007e581620007d0565b8114620007f157600080fd5b50565b6000815190506200080581620007da565b92915050565b60008060008060008060c087890312156200082b576200082a6200042d565b5b60006200083b89828a0162000485565b96505060206200084e89828a01620004ca565b95505060406200086189828a0162000505565b94505060606200087489828a0162000546565b935050608087015167ffffffffffffffff81111562000898576200089762000432565b5b620008a689828a01620007a0565b92505060a0620008b989828a01620007f4565b9150509295509295509295565b7f4e487b7100000000000000000000000000000000000000000000000000000000600052602260045260246000fd5b600060028204905060018216806200090e57607f821691505b60208210811415620009255762000924620008c6565b5b50919050565b60805160601c60a05160601c60c05160c01c60e0516101005160e01c6101205161396a6200099560003960008181610d3f0152610f4e0152600061102801526000610fe40152600061100501526000610fa80152600081816108d10152610925015261396a6000f3fe6080604052600436106101665760003560e01c806370a08231116100d1578063a22cb4651161008a578063b88d4fde11610064578063b88d4fde14610531578063c87b56dd1461055a578063e985e9c514610597578063f2fde38b146105d457610166565b8063a22cb465146104ad578063a36f573b146104d6578063aa1524911461051357610166565b806370a082311461039b578063715018a6146103d85780637a5caab3146103ef5780638da5cb5b1461041a57806395d89b4114610445578063976fe1821461047057610166565b80633ccfd60b116101235780633ccfd60b1461028b57806342842e0e146102a25780634d77094c146102cb5780635dacf5f4146103085780636352211e146103335780636e02007d1461037057610166565b806301ffc9a71461016b57806306fdde03146101a8578063081812fc146101d3578063095ea7b3146102105780631fe543e31461023957806323b872dd14610262575b600080fd5b34801561017757600080fd5b50610192600480360381019061018d9190612518565b6105fd565b60405161019f9190612560565b60405180910390f35b3480156101b457600080fd5b506101bd6106df565b6040516101ca9190612614565b60405180910390f35b3480156101df57600080fd5b506101fa60048036038101906101f5919061266c565b610771565b60405161020791906126da565b60405180910390f35b34801561021c57600080fd5b5061023760048036038101906102329190612721565b6107b7565b005b34801561024557600080fd5b50610260600480360381019061025b91906128a9565b6108cf565b005b34801561026e57600080fd5b5061028960048036038101906102849190612905565b61098f565b005b34801561029757600080fd5b506102a06109ef565b005b3480156102ae57600080fd5b506102c960048036038101906102c49190612905565b610aa3565b005b3480156102d757600080fd5b506102f260048036038101906102ed919061266c565b610ac3565b6040516102ff9190612614565b60405180910390f35b34801561031457600080fd5b5061031d610b73565b60405161032a9190612a03565b60405180910390f35b34801561033f57600080fd5b5061035a6004803603810190610355919061266c565b610bac565b60405161036791906126da565b60405180910390f35b34801561037c57600080fd5b50610385610c5e565b6040516103929190612a2d565b60405180910390f35b3480156103a757600080fd5b506103c260048036038101906103bd9190612a48565b610c6f565b6040516103cf9190612a2d565b60405180910390f35b3480156103e457600080fd5b506103ed610d27565b005b3480156103fb57600080fd5b50610404610d3b565b6040516104119190612a2d565b60405180910390f35b34801561042657600080fd5b5061042f610d63565b60405161043c91906126da565b60405180910390f35b34801561045157600080fd5b5061045a610d8d565b6040516104679190612614565b60405180910390f35b34801561047c57600080fd5b506104976004803603810190610492919061266c565b610e1f565b6040516104a49190612aec565b60405180910390f35b3480156104b957600080fd5b506104d460048036038101906104cf9190612b33565b610f01565b005b3480156104e257600080fd5b506104fd60048036038101906104f8919061266c565b610f17565b60405161050a91906126da565b60405180910390f35b61051b610f4a565b6040516105289190612a2d565b60405180910390f35b34801561053d57600080fd5b5061055860048036038101906105539190612c28565b61114a565b005b34801561056657600080fd5b50610581600480360381019061057c919061266c565b6111ac565b60405161058e9190612614565b60405180910390f35b3480156105a357600080fd5b506105be60048036038101906105b99190612cab565b6112bf565b6040516105cb9190612560565b60405180910390f35b3480156105e057600080fd5b506105fb60048036038101906105f69190612a48565b611353565b005b60007f80ac58cd000000000000000000000000000000000000000000000000000000007bffffffffffffffffffffffffffffffffffffffffffffffffffffffff1916827bffffffffffffffffffffffffffffffffffffffffffffffffffffffff191614806106c857507f5b5e139f000000000000000000000000000000000000000000000000000000007bffffffffffffffffffffffffffffffffffffffffffffffffffffffff1916827bffffffffffffffffffffffffffffffffffffffffffffffffffffffff1916145b806106d857506106d7826113d7565b5b9050919050565b6060600080546106ee90612d1a565b80601f016020809104026020016040519081016040528092919081815260200182805461071a90612d1a565b80156107675780601f1061073c57610100808354040283529160200191610767565b820191906000526020600020905b81548152906001019060200180831161074a57829003601f168201915b5050505050905090565b600061077c82611441565b6004600083815260200190815260200160002060009054906101000a900473ffffffffffffffffffffffffffffffffffffffff169050919050565b60006107c282610bac565b90508073ffffffffffffffffffffffffffffffffffffffff168373ffffffffffffffffffffffffffffffffffffffff161415610833576040517f08c379a000000000000000000000000000000000000000000000000000000000815260040161082a90612dbe565b60405180910390fd5b8073ffffffffffffffffffffffffffffffffffffffff1661085261148c565b73ffffffffffffffffffffffffffffffffffffffff16148061088157506108808161087b61148c565b6112bf565b5b6108c0576040517f08c379a00000000000000000000000000000000000000000000000000000000081526004016108b790612e50565b60405180910390fd5b6108ca8383611494565b505050565b7f000000000000000000000000000000000000000000000000000000000000000073ffffffffffffffffffffffffffffffffffffffff163373ffffffffffffffffffffffffffffffffffffffff161461098157337f00000000000000000000000000000000000000000000000000000000000000006040517f1cf993f4000000000000000000000000000000000000000000000000000000008152600401610978929190612e70565b60405180910390fd5b61098b828261154d565b5050565b6109a061099a61148c565b826116e3565b6109df576040517f08c379a00000000000000000000000000000000000000000000000000000000081526004016109d690612f0b565b60405180910390fd5b6109ea838383611778565b505050565b6109f76119df565b600047905060003373ffffffffffffffffffffffffffffffffffffffff1682604051610a2290612f5c565b60006040518083038185875af1925050503d8060008114610a5f576040519150601f19603f3d011682016040523d82523d6000602084013e610a64565b606091505b5050905080610a9f576040517f7ac77b8800000000000000000000000000000000000000000000000000000000815260040160405180910390fd5b5050565b610abe8383836040518060200160405280600081525061114a565b505050565b6060600a8281548110610ad957610ad8612f71565b5b906000526020600020018054610aee90612d1a565b80601f0160208091040260200160405190810160405280929190818152602001828054610b1a90612d1a565b8015610b675780601f10610b3c57610100808354040283529160200191610b67565b820191906000526020600020905b815481529060010190602001808311610b4a57829003601f168201915b50505050509050919050565b610b7b6123e7565b6040518060a00160405280600d8152602001601e815260200160328152602001604b81526020016064815250905090565b6000806002600084815260200190815260200160002060009054906101000a900473ffffffffffffffffffffffffffffffffffffffff169050600073ffffffffffffffffffffffffffffffffffffffff168173ffffffffffffffffffffffffffffffffffffffff161415610c55576040517f08c379a0000000000000000000000000000000000000000000000000000000008152600401610c4c90612fec565b60405180910390fd5b80915050919050565b6000610c6a6008611a5d565b905090565b60008073ffffffffffffffffffffffffffffffffffffffff168273ffffffffffffffffffffffffffffffffffffffff161415610ce0576040517f08c379a0000000000000000000000000000000000000000000000000000000008152600401610cd79061307e565b60405180910390fd5b600360008373ffffffffffffffffffffffffffffffffffffffff1673ffffffffffffffffffffffffffffffffffffffff168152602001908152602001600020549050919050565b610d2f6119df565b610d396000611a6b565b565b60007f0000000000000000000000000000000000000000000000000000000000000000905090565b6000600760009054906101000a900473ffffffffffffffffffffffffffffffffffffffff16905090565b606060018054610d9c90612d1a565b80601f0160208091040260200160405190810160405280929190818152602001828054610dc890612d1a565b8015610e155780601f10610dea57610100808354040283529160200191610e15565b820191906000526020600020905b815481529060010190602001808311610df857829003601f168201915b5050505050905090565b600080600090506000610e30610b73565b905060005b6005811015610ec957828510158015610e6f5750818160058110610e5c57610e5b612f71565b5b602002015183610e6c91906130cd565b85105b15610e9157806004811115610e8757610e86612a75565b5b9350505050610efc565b818160058110610ea457610ea3612f71565b5b602002015183610eb491906130cd565b92508080610ec190613123565b915050610e35565b506040517f6788426f00000000000000000000000000000000000000000000000000000000815260040160405180910390fd5b919050565b610f13610f0c61148c565b8383611b31565b5050565b60096020528060005260406000206000915054906101000a900473ffffffffffffffffffffffffffffffffffffffff1681565b60007f0000000000000000000000000000000000000000000000000000000000000000341015610fa6576040517f21a03eef00000000000000000000000000000000000000000000000000000000815260040160405180910390fd5b7f000000000000000000000000000000000000000000000000000000000000000073ffffffffffffffffffffffffffffffffffffffff16635d3b1d307f00000000000000000000000000000000000000000000000000000000000000007f000000000000000000000000000000000000000000000000000000000000000060037f000000000000000000000000000000000000000000000000000000000000000060016040518663ffffffff1660e01b81526004016110699594939291906131e4565b602060405180830381600087803b15801561108357600080fd5b505af1158015611097573d6000803e3d6000fd5b505050506040513d601f19601f820116820180604052508101906110bb919061324c565b9050336009600083815260200190815260200160002060006101000a81548173ffffffffffffffffffffffffffffffffffffffff021916908373ffffffffffffffffffffffffffffffffffffffff160217905550807ff873236e6cc0ecc5be1a9a35c95ee5b8d1ac4cc7bfef0cc5060391d6cc98e26b3360405161113f91906126da565b60405180910390a290565b61115b61115561148c565b836116e3565b61119a576040517f08c379a000000000000000000000000000000000000000000000000000000000815260040161119190612f0b565b60405180910390fd5b6111a684848484611c9e565b50505050565b60606111b782611441565b60006006600084815260200190815260200160002080546111d790612d1a565b80601f016020809104026020016040519081016040528092919081815260200182805461120390612d1a565b80156112505780601f1061122557610100808354040283529160200191611250565b820191906000526020600020905b81548152906001019060200180831161123357829003601f168201915b505050505090506000611261611cfa565b90506000815114156112775781925050506112ba565b6000825111156112ac5780826040516020016112949291906132b5565b604051602081830303815290604052925050506112ba565b6112b584611d11565b925050505b919050565b6000600560008473ffffffffffffffffffffffffffffffffffffffff1673ffffffffffffffffffffffffffffffffffffffff16815260200190815260200160002060008373ffffffffffffffffffffffffffffffffffffffff1673ffffffffffffffffffffffffffffffffffffffff16815260200190815260200160002060009054906101000a900460ff16905092915050565b61135b6119df565b600073ffffffffffffffffffffffffffffffffffffffff168173ffffffffffffffffffffffffffffffffffffffff1614156113cb576040517f08c379a00000000000000000000000000000000000000000000000000000000081526004016113c29061334b565b60405180910390fd5b6113d481611a6b565b50565b60007f01ffc9a7000000000000000000000000000000000000000000000000000000007bffffffffffffffffffffffffffffffffffffffffffffffffffffffff1916827bffffffffffffffffffffffffffffffffffffffffffffffffffffffff1916149050919050565b61144a81611d79565b611489576040517f08c379a000000000000000000000000000000000000000000000000000000000815260040161148090612fec565b60405180910390fd5b50565b600033905090565b816004600083815260200190815260200160002060006101000a81548173ffffffffffffffffffffffffffffffffffffffff021916908373ffffffffffffffffffffffffffffffffffffffff160217905550808273ffffffffffffffffffffffffffffffffffffffff1661150783610bac565b73ffffffffffffffffffffffffffffffffffffffff167f8c5be1e5ebec7d5bd14f71427d1e84f3dd0314c0f7b2291e5b200ac8c7c3b92560405160405180910390a45050565b60006009600084815260200190815260200160002060009054906101000a900473ffffffffffffffffffffffffffffffffffffffff16905061158f6008611de5565b600061159b6008611a5d565b905060006064846000815181106115b5576115b4612f71565b5b60200260200101516115c7919061339a565b905060006115d482610e1f565b90506115e08484611dfb565b6116a283600a8360048111156115f9576115f8612a75565b5b8154811061160a57611609612f71565b5b90600052602060002001805461161f90612d1a565b80601f016020809104026020016040519081016040528092919081815260200182805461164b90612d1a565b80156116985780601f1061166d57610100808354040283529160200191611698565b820191906000526020600020905b81548152906001019060200180831161167b57829003601f168201915b5050505050611e19565b7f8a269f26b688e110e9cbd887d163dab35cae678fa353a0292de532c0cac1ecdc81856040516116d39291906133cb565b60405180910390a1505050505050565b6000806116ef83610bac565b90508073ffffffffffffffffffffffffffffffffffffffff168473ffffffffffffffffffffffffffffffffffffffff161480611731575061173081856112bf565b5b8061176f57508373ffffffffffffffffffffffffffffffffffffffff1661175784610771565b73ffffffffffffffffffffffffffffffffffffffff16145b91505092915050565b8273ffffffffffffffffffffffffffffffffffffffff1661179882610bac565b73ffffffffffffffffffffffffffffffffffffffff16146117ee576040517f08c379a00000000000000000000000000000000000000000000000000000000081526004016117e590613466565b60405180910390fd5b600073ffffffffffffffffffffffffffffffffffffffff168273ffffffffffffffffffffffffffffffffffffffff16141561185e576040517f08c379a0000000000000000000000000000000000000000000000000000000008152600401611855906134f8565b60405180910390fd5b611869838383611e8d565b611874600082611494565b6001600360008573ffffffffffffffffffffffffffffffffffffffff1673ffffffffffffffffffffffffffffffffffffffff16815260200190815260200160002060008282546118c49190613518565b925050819055506001600360008473ffffffffffffffffffffffffffffffffffffffff1673ffffffffffffffffffffffffffffffffffffffff168152602001908152602001600020600082825461191b91906130cd565b92505081905550816002600083815260200190815260200160002060006101000a81548173ffffffffffffffffffffffffffffffffffffffff021916908373ffffffffffffffffffffffffffffffffffffffff160217905550808273ffffffffffffffffffffffffffffffffffffffff168473ffffffffffffffffffffffffffffffffffffffff167fddf252ad1be2c89b69c2b068fc378daa952ba7f163c4a11628f55a4df523b3ef60405160405180910390a46119da838383611e92565b505050565b6119e761148c565b73ffffffffffffffffffffffffffffffffffffffff16611a05610d63565b73ffffffffffffffffffffffffffffffffffffffff1614611a5b576040517f08c379a0000000000000000000000000000000000000000000000000000000008152600401611a5290613598565b60405180910390fd5b565b600081600001549050919050565b6000600760009054906101000a900473ffffffffffffffffffffffffffffffffffffffff16905081600760006101000a81548173ffffffffffffffffffffffffffffffffffffffff021916908373ffffffffffffffffffffffffffffffffffffffff1602179055508173ffffffffffffffffffffffffffffffffffffffff168173ffffffffffffffffffffffffffffffffffffffff167f8be0079c531659141344cd1fd0a4f28419497f9722a3daafe3b4186f6b6457e060405160405180910390a35050565b8173ffffffffffffffffffffffffffffffffffffffff168373ffffffffffffffffffffffffffffffffffffffff161415611ba0576040517f08c379a0000000000000000000000000000000000000000000000000000000008152600401611b9790613604565b60405180910390fd5b80600560008573ffffffffffffffffffffffffffffffffffffffff1673ffffffffffffffffffffffffffffffffffffffff16815260200190815260200160002060008473ffffffffffffffffffffffffffffffffffffffff1673ffffffffffffffffffffffffffffffffffffffff16815260200190815260200160002060006101000a81548160ff0219169083151502179055508173ffffffffffffffffffffffffffffffffffffffff168373ffffffffffffffffffffffffffffffffffffffff167f17307eab39ab6107e8899845ad3d59bd9653f200f220920489ca2b5937696c3183604051611c919190612560565b60405180910390a3505050565b611ca9848484611778565b611cb584848484611e97565b611cf4576040517f08c379a0000000000000000000000000000000000000000000000000000000008152600401611ceb90613696565b60405180910390fd5b50505050565b606060405180602001604052806000815250905090565b6060611d1c82611441565b6000611d26611cfa565b90506000815111611d465760405180602001604052806000815250611d71565b80611d508461202e565b604051602001611d619291906132b5565b6040516020818303038152906040525b915050919050565b60008073ffffffffffffffffffffffffffffffffffffffff166002600084815260200190815260200160002060009054906101000a900473ffffffffffffffffffffffffffffffffffffffff1673ffffffffffffffffffffffffffffffffffffffff1614159050919050565b6001816000016000828254019250508190555050565b611e1582826040518060200160405280600081525061218f565b5050565b611e2282611d79565b611e61576040517f08c379a0000000000000000000000000000000000000000000000000000000008152600401611e5890613728565b60405180910390fd5b80600660008481526020019081526020016000209080519060200190611e88929190612409565b505050565b505050565b505050565b6000611eb88473ffffffffffffffffffffffffffffffffffffffff166121ea565b15612021578373ffffffffffffffffffffffffffffffffffffffff1663150b7a02611ee161148c565b8786866040518563ffffffff1660e01b8152600401611f03949392919061379d565b602060405180830381600087803b158015611f1d57600080fd5b505af1925050508015611f4e57506040513d601f19601f82011682018060405250810190611f4b91906137fe565b60015b611fd1573d8060008114611f7e576040519150601f19603f3d011682016040523d82523d6000602084013e611f83565b606091505b50600081511415611fc9576040517f08c379a0000000000000000000000000000000000000000000000000000000008152600401611fc090613696565b60405180910390fd5b805181602001fd5b63150b7a0260e01b7bffffffffffffffffffffffffffffffffffffffffffffffffffffffff1916817bffffffffffffffffffffffffffffffffffffffffffffffffffffffff191614915050612026565b600190505b949350505050565b60606000821415612076576040518060400160405280600181526020017f3000000000000000000000000000000000000000000000000000000000000000815250905061218a565b600082905060005b600082146120a857808061209190613123565b915050600a826120a1919061382b565b915061207e565b60008167ffffffffffffffff8111156120c4576120c3612766565b5b6040519080825280601f01601f1916602001820160405280156120f65781602001600182028036833780820191505090505b5090505b600085146121835760018261210f9190613518565b9150600a8561211e919061339a565b603061212a91906130cd565b60f81b8183815181106121405761213f612f71565b5b60200101907effffffffffffffffffffffffffffffffffffffffffffffffffffffffffffff1916908160001a905350600a8561217c919061382b565b94506120fa565b8093505050505b919050565b612199838361220d565b6121a66000848484611e97565b6121e5576040517f08c379a00000000000000000000000000000000000000000000000000000000081526004016121dc90613696565b60405180910390fd5b505050565b6000808273ffffffffffffffffffffffffffffffffffffffff163b119050919050565b600073ffffffffffffffffffffffffffffffffffffffff168273ffffffffffffffffffffffffffffffffffffffff16141561227d576040517f08c379a0000000000000000000000000000000000000000000000000000000008152600401612274906138a8565b60405180910390fd5b61228681611d79565b156122c6576040517f08c379a00000000000000000000000000000000000000000000000000000000081526004016122bd90613914565b60405180910390fd5b6122d260008383611e8d565b6001600360008473ffffffffffffffffffffffffffffffffffffffff1673ffffffffffffffffffffffffffffffffffffffff168152602001908152602001600020600082825461232291906130cd565b92505081905550816002600083815260200190815260200160002060006101000a81548173ffffffffffffffffffffffffffffffffffffffff021916908373ffffffffffffffffffffffffffffffffffffffff160217905550808273ffffffffffffffffffffffffffffffffffffffff16600073ffffffffffffffffffffffffffffffffffffffff167fddf252ad1be2c89b69c2b068fc378daa952ba7f163c4a11628f55a4df523b3ef60405160405180910390a46123e360008383611e92565b5050565b6040518060a00160405280600590602082028036833780820191505090505090565b82805461241590612d1a565b90600052602060002090601f016020900481019282612437576000855561247e565b82601f1061245057805160ff191683800117855561247e565b8280016001018555821561247e579182015b8281111561247d578251825591602001919060010190612462565b5b50905061248b919061248f565b5090565b5b808211156124a8576000816000905550600101612490565b5090565b6000604051905090565b600080fd5b600080fd5b60007fffffffff0000000000000000000000000000000000000000000000000000000082169050919050565b6124f5816124c0565b811461250057600080fd5b50565b600081359050612512816124ec565b92915050565b60006020828403121561252e5761252d6124b6565b5b600061253c84828501612503565b91505092915050565b60008115159050919050565b61255a81612545565b82525050565b60006020820190506125756000830184612551565b92915050565b600081519050919050565b600082825260208201905092915050565b60005b838110156125b557808201518184015260208101905061259a565b838111156125c4576000848401525b50505050565b6000601f19601f8301169050919050565b60006125e68261257b565b6125f08185612586565b9350612600818560208601612597565b612609816125ca565b840191505092915050565b6000602082019050818103600083015261262e81846125db565b905092915050565b6000819050919050565b61264981612636565b811461265457600080fd5b50565b60008135905061266681612640565b92915050565b600060208284031215612682576126816124b6565b5b600061269084828501612657565b91505092915050565b600073ffffffffffffffffffffffffffffffffffffffff82169050919050565b60006126c482612699565b9050919050565b6126d4816126b9565b82525050565b60006020820190506126ef60008301846126cb565b92915050565b6126fe816126b9565b811461270957600080fd5b50565b60008135905061271b816126f5565b92915050565b60008060408385031215612738576127376124b6565b5b60006127468582860161270c565b925050602061275785828601612657565b9150509250929050565b600080fd5b7f4e487b7100000000000000000000000000000000000000000000000000000000600052604160045260246000fd5b61279e826125ca565b810181811067ffffffffffffffff821117156127bd576127bc612766565b5b80604052505050565b60006127d06124ac565b90506127dc8282612795565b919050565b600067ffffffffffffffff8211156127fc576127fb612766565b5b602082029050602081019050919050565b600080fd5b6000612825612820846127e1565b6127c6565b905080838252602082019050602084028301858111156128485761284761280d565b5b835b81811015612871578061285d8882612657565b84526020840193505060208101905061284a565b5050509392505050565b600082601f8301126128905761288f612761565b5b81356128a0848260208601612812565b91505092915050565b600080604083850312156128c0576128bf6124b6565b5b60006128ce85828601612657565b925050602083013567ffffffffffffffff8111156128ef576128ee6124bb565b5b6128fb8582860161287b565b9150509250929050565b60008060006060848603121561291e5761291d6124b6565b5b600061292c8682870161270c565b935050602061293d8682870161270c565b925050604061294e86828701612657565b9150509250925092565b600060059050919050565b600081905092915050565b6000819050919050565b61298181612636565b82525050565b60006129938383612978565b60208301905092915050565b6000602082019050919050565b6129b581612958565b6129bf8184612963565b92506129ca8261296e565b8060005b838110156129fb5781516129e28782612987565b96506129ed8361299f565b9250506001810190506129ce565b505050505050565b600060a082019050612a1860008301846129ac565b92915050565b612a2781612636565b82525050565b6000602082019050612a426000830184612a1e565b92915050565b600060208284031215612a5e57612a5d6124b6565b5b6000612a6c8482850161270c565b91505092915050565b7f4e487b7100000000000000000000000000000000000000000000000000000000600052602160045260246000fd5b60058110612ab557612ab4612a75565b5b50565b6000819050612ac682612aa4565b919050565b6000612ad682612ab8565b9050919050565b612ae681612acb565b82525050565b6000602082019050612b016000830184612add565b92915050565b612b1081612545565b8114612b1b57600080fd5b50565b600081359050612b2d81612b07565b92915050565b60008060408385031215612b4a57612b496124b6565b5b6000612b588582860161270c565b9250506020612b6985828601612b1e565b9150509250929050565b600080fd5b600067ffffffffffffffff821115612b9357612b92612766565b5b612b9c826125ca565b9050602081019050919050565b82818337600083830152505050565b6000612bcb612bc684612b78565b6127c6565b905082815260208101848484011115612be757612be6612b73565b5b612bf2848285612ba9565b509392505050565b600082601f830112612c0f57612c0e612761565b5b8135612c1f848260208601612bb8565b91505092915050565b60008060008060808587031215612c4257612c416124b6565b5b6000612c508782880161270c565b9450506020612c618782880161270c565b9350506040612c7287828801612657565b925050606085013567ffffffffffffffff811115612c9357612c926124bb565b5b612c9f87828801612bfa565b91505092959194509250565b60008060408385031215612cc257612cc16124b6565b5b6000612cd08582860161270c565b9250506020612ce18582860161270c565b9150509250929050565b7f4e487b7100000000000000000000000000000000000000000000000000000000600052602260045260246000fd5b60006002820490506001821680612d3257607f821691505b60208210811415612d4657612d45612ceb565b5b50919050565b7f4552433732313a20617070726f76616c20746f2063757272656e74206f776e6560008201527f7200000000000000000000000000000000000000000000000000000000000000602082015250565b6000612da8602183612586565b9150612db382612d4c565b604082019050919050565b60006020820190508181036000830152612dd781612d9b565b9050919050565b7f4552433732313a20617070726f76652063616c6c6572206973206e6f7420746f60008201527f6b656e206f776e6572206e6f7220617070726f76656420666f7220616c6c0000602082015250565b6000612e3a603e83612586565b9150612e4582612dde565b604082019050919050565b60006020820190508181036000830152612e6981612e2d565b9050919050565b6000604082019050612e8560008301856126cb565b612e9260208301846126cb565b9392505050565b7f4552433732313a2063616c6c6572206973206e6f7420746f6b656e206f776e6560008201527f72206e6f7220617070726f766564000000000000000000000000000000000000602082015250565b6000612ef5602e83612586565b9150612f0082612e99565b604082019050919050565b60006020820190508181036000830152612f2481612ee8565b9050919050565b600081905092915050565b50565b6000612f46600083612f2b565b9150612f5182612f36565b600082019050919050565b6000612f6782612f39565b9150819050919050565b7f4e487b7100000000000000000000000000000000000000000000000000000000600052603260045260246000fd5b7f4552433732313a20696e76616c696420746f6b656e2049440000000000000000600082015250565b6000612fd6601883612586565b9150612fe182612fa0565b602082019050919050565b6000602082019050818103600083015261300581612fc9565b9050919050565b7f4552433732313a2061646472657373207a65726f206973206e6f74206120766160008201527f6c6964206f776e65720000000000000000000000000000000000000000000000602082015250565b6000613068602983612586565b91506130738261300c565b604082019050919050565b600060208201905081810360008301526130978161305b565b9050919050565b7f4e487b7100000000000000000000000000000000000000000000000000000000600052601160045260246000fd5b60006130d882612636565b91506130e383612636565b9250827fffffffffffffffffffffffffffffffffffffffffffffffffffffffffffffffff038211156131185761311761309e565b5b828201905092915050565b600061312e82612636565b91507fffffffffffffffffffffffffffffffffffffffffffffffffffffffffffffffff8214156131615761316061309e565b5b600182019050919050565b6000819050919050565b61317f8161316c565b82525050565b600067ffffffffffffffff82169050919050565b6131a281613185565b82525050565b600061ffff82169050919050565b6131bf816131a8565b82525050565b600063ffffffff82169050919050565b6131de816131c5565b82525050565b600060a0820190506131f96000830188613176565b6132066020830187613199565b61321360408301866131b6565b61322060608301856131d5565b61322d60808301846131d5565b9695505050505050565b60008151905061324681612640565b92915050565b600060208284031215613262576132616124b6565b5b600061327084828501613237565b91505092915050565b600081905092915050565b600061328f8261257b565b6132998185613279565b93506132a9818560208601612597565b80840191505092915050565b60006132c18285613284565b91506132cd8284613284565b91508190509392505050565b7f4f776e61626c653a206e6577206f776e657220697320746865207a65726f206160008201527f6464726573730000000000000000000000000000000000000000000000000000602082015250565b6000613335602683612586565b9150613340826132d9565b604082019050919050565b6000602082019050818103600083015261336481613328565b9050919050565b7f4e487b7100000000000000000000000000000000000000000000000000000000600052601260045260246000fd5b60006133a582612636565b91506133b083612636565b9250826133c0576133bf61336b565b5b828206905092915050565b60006040820190506133e06000830185612add565b6133ed60208301846126cb565b9392505050565b7f4552433732313a207472616e736665722066726f6d20696e636f72726563742060008201527f6f776e6572000000000000000000000000000000000000000000000000000000602082015250565b6000613450602583612586565b915061345b826133f4565b604082019050919050565b6000602082019050818103600083015261347f81613443565b9050919050565b7f4552433732313a207472616e7366657220746f20746865207a65726f2061646460008201527f7265737300000000000000000000000000000000000000000000000000000000602082015250565b60006134e2602483612586565b91506134ed82613486565b604082019050919050565b60006020820190508181036000830152613511816134d5565b9050919050565b600061352382612636565b915061352e83612636565b9250828210156135415761354061309e565b5b828203905092915050565b7f4f776e61626c653a2063616c6c6572206973206e6f7420746865206f776e6572600082015250565b6000613582602083612586565b915061358d8261354c565b602082019050919050565b600060208201905081810360008301526135b181613575565b9050919050565b7f4552433732313a20617070726f766520746f2063616c6c657200000000000000600082015250565b60006135ee601983612586565b91506135f9826135b8565b602082019050919050565b6000602082019050818103600083015261361d816135e1565b9050919050565b7f4552433732313a207472616e7366657220746f206e6f6e20455243373231526560008201527f63656976657220696d706c656d656e7465720000000000000000000000000000602082015250565b6000613680603283612586565b915061368b82613624565b604082019050919050565b600060208201905081810360008301526136af81613673565b9050919050565b7f45524337323155524953746f726167653a2055524920736574206f66206e6f6e60008201527f6578697374656e7420746f6b656e000000000000000000000000000000000000602082015250565b6000613712602e83612586565b915061371d826136b6565b604082019050919050565b6000602082019050818103600083015261374181613705565b9050919050565b600081519050919050565b600082825260208201905092915050565b600061376f82613748565b6137798185613753565b9350613789818560208601612597565b613792816125ca565b840191505092915050565b60006080820190506137b260008301876126cb565b6137bf60208301866126cb565b6137cc6040830185612a1e565b81810360608301526137de8184613764565b905095945050505050565b6000815190506137f8816124ec565b92915050565b600060208284031215613814576138136124b6565b5b6000613822848285016137e9565b91505092915050565b600061383682612636565b915061384183612636565b9250826138515761385061336b565b5b828204905092915050565b7f4552433732313a206d696e7420746f20746865207a65726f2061646472657373600082015250565b6000613892602083612586565b915061389d8261385c565b602082019050919050565b600060208201905081810360008301526138c181613885565b9050919050565b7f4552433732313a20746f6b656e20616c7265616479206d696e74656400000000600082015250565b60006138fe601c83612586565b9150613909826138c8565b602082019050919050565b6000602082019050818103600083015261392d816138f1565b905091905056fea2646970667358221220bd286e0e96db86f24c1aac96aa62f85fcd3bae9bc55b1d2d540dd66e0d9572d964736f6c63430008080033",
  "linkReferences": {},
  "deployedLinkReferences": {}
}