{
  "_format": "hh-sol-artifact-1",
  "contractName": "KTTKExperience",
  "sourceName": "contracts/KTTKExperience.sol",
  "abi": [
    {
      "inputs": [
        {
          "internalType": "address",
          "name": "nftCollectionAddress",
          "type": "address"
        }
      ],
      "stateMutability": "nonpayable",
      "type": "constructor"
    },
    {
      "inputs": [],
      "name": "KTTKExperience__AllTicketsHaveBeenClaimed",
      "type": "error"
    },
    {
      "inputs": [],
      "name": "KTTKExperience__DoesNotOwnNFTFromCollection",
      "type": "error"
    },
    {
      "anonymous": false,
      "inputs": [
        {
          "indexed": true,
          "internalType": "address",
          "name": "owner",
          "type": "address"
        },
        {
          "indexed": true,
          "internalType": "address",
          "name": "approved",
          "type": "address"
        },
        {
          "indexed": true,
          "internalType": "uint256",
          "name": "tokenId",
          "type": "uint256"
        }
      ],
      "name": "Approval",
      "type": "event"
    },
    {
      "anonymous": false,
      "inputs": [
        {
          "indexed": true,
          "internalType": "address",
          "name": "owner",
          "type": "address"
        },
        {
          "indexed": true,
          "internalType": "address",
          "name": "operator",
          "type": "address"
        },
        {
          "indexed": false,
          "internalType": "bool",
          "name": "approved",
          "type": "bool"
        }
      ],
      "name": "ApprovalForAll",
      "type": "event"
    },
    {
      "anonymous": false,
      "inputs": [
        {
          "indexed": true,
          "internalType": "address",
          "name": "wallet",
          "type": "address"
        },
        {
          "indexed": false,
          "internalType": "uint256",
          "name": "ticketsClaimed",
          "type": "uint256"
        }
      ],
      "name": "TicketMinted",
      "type": "event"
    },
    {
      "anonymous": false,
      "inputs": [
        {
          "indexed": true,
          "internalType": "address",
          "name": "from",
          "type": "address"
        },
        {
          "indexed": true,
          "internalType": "address",
          "name": "to",
          "type": "address"
        },
        {
          "indexed": true,
          "internalType": "uint256",
          "name": "tokenId",
          "type": "uint256"
        }
      ],
      "name": "Transfer",
      "type": "event"
    },
    {
      "inputs": [
        {
          "internalType": "address",
          "name": "to",
          "type": "address"
        },
        {
          "internalType": "uint256",
          "name": "tokenId",
          "type": "uint256"
        }
      ],
      "name": "approve",
      "outputs": [],
      "stateMutability": "nonpayable",
      "type": "function"
    },
    {
      "inputs": [
        {
          "internalType": "address",
          "name": "owner",
          "type": "address"
        }
      ],
      "name": "balanceOf",
      "outputs": [
        {
          "internalType": "uint256",
          "name": "",
          "type": "uint256"
        }
      ],
      "stateMutability": "view",
      "type": "function"
    },
    {
      "inputs": [],
      "name": "claimTicketToExperience",
      "outputs": [],
      "stateMutability": "nonpayable",
      "type": "function"
    },
    {
      "inputs": [
        {
          "internalType": "uint256",
          "name": "tokenId",
          "type": "uint256"
        }
      ],
      "name": "getApproved",
      "outputs": [
        {
          "internalType": "address",
          "name": "",
          "type": "address"
        }
      ],
      "stateMutability": "view",
      "type": "function"
    },
    {
      "inputs": [
        {
          "internalType": "address",
          "name": "owner",
          "type": "address"
        },
        {
          "internalType": "address",
          "name": "operator",
          "type": "address"
        }
      ],
      "name": "isApprovedForAll",
      "outputs": [
        {
          "internalType": "bool",
          "name": "",
          "type": "bool"
        }
      ],
      "stateMutability": "view",
      "type": "function"
    },
    {
      "inputs": [],
      "name": "maxTicketsAvailableForAddress",
      "outputs": [
        {
          "internalType": "uint256",
          "name": "",
          "type": "uint256"
        }
      ],
      "stateMutability": "view",
      "type": "function"
    },
    {
      "inputs": [],
      "name": "name",
      "outputs": [
        {
          "internalType": "string",
          "name": "",
          "type": "string"
        }
      ],
      "stateMutability": "view",
      "type": "function"
    },
    {
      "inputs": [
        {
          "internalType": "uint256",
          "name": "tokenId",
          "type": "uint256"
        }
      ],
      "name": "ownerOf",
      "outputs": [
        {
          "internalType": "address",
          "name": "",
          "type": "address"
        }
      ],
      "stateMutability": "view",
      "type": "function"
    },
    {
      "inputs": [
        {
          "internalType": "address",
          "name": "from",
          "type": "address"
        },
        {
          "internalType": "address",
          "name": "to",
          "type": "address"
        },
        {
          "internalType": "uint256",
          "name": "tokenId",
          "type": "uint256"
        }
      ],
      "name": "safeTransferFrom",
      "outputs": [],
      "stateMutability": "nonpayable",
      "type": "function"
    },
    {
      "inputs": [
        {
          "internalType": "address",
          "name": "from",
          "type": "address"
        },
        {
          "internalType": "address",
          "name": "to",
          "type": "address"
        },
        {
          "internalType": "uint256",
          "name": "tokenId",
          "type": "uint256"
        },
        {
          "internalType": "bytes",
          "name": "data",
          "type": "bytes"
        }
      ],
      "name": "safeTransferFrom",
      "outputs": [],
      "stateMutability": "nonpayable",
      "type": "function"
    },
    {
      "inputs": [
        {
          "internalType": "address",
          "name": "operator",
          "type": "address"
        },
        {
          "internalType": "bool",
          "name": "approved",
          "type": "bool"
        }
      ],
      "name": "setApprovalForAll",
      "outputs": [],
      "stateMutability": "nonpayable",
      "type": "function"
    },
    {
      "inputs": [
        {
          "internalType": "bytes4",
          "name": "interfaceId",
          "type": "bytes4"
        }
      ],
      "name": "supportsInterface",
      "outputs": [
        {
          "internalType": "bool",
          "name": "",
          "type": "bool"
        }
      ],
      "stateMutability": "view",
      "type": "function"
    },
    {
      "inputs": [],
      "name": "symbol",
      "outputs": [
        {
          "internalType": "string",
          "name": "",
          "type": "string"
        }
      ],
      "stateMutability": "view",
      "type": "function"
    },
    {
      "inputs": [],
      "name": "ticketsClaimedByAddress",
      "outputs": [
        {
          "internalType": "uint256",
          "name": "",
          "type": "uint256"
        }
      ],
      "stateMutability": "view",
      "type": "function"
    },
    {
      "inputs": [],
      "name": "ticketsLeftToClaim",
      "outputs": [
        {
          "internalType": "uint256",
          "name": "",
          "type": "uint256"
        }
      ],
      "stateMutability": "view",
      "type": "function"
    },
    {
      "inputs": [
        {
          "internalType": "uint256",
          "name": "tokenId",
          "type": "uint256"
        }
      ],
      "name": "tokenURI",
      "outputs": [
        {
          "internalType": "string",
          "name": "",
          "type": "string"
        }
      ],
      "stateMutability": "view",
      "type": "function"
    },
    {
      "inputs": [
        {
          "internalType": "address",
          "name": "from",
          "type": "address"
        },
        {
          "internalType": "address",
          "name": "to",
          "type": "address"
        },
        {
          "internalType": "uint256",
          "name": "tokenId",
          "type": "uint256"
        }
      ],
      "name": "transferFrom",
      "outputs": [],
      "stateMutability": "nonpayable",
      "type": "function"
    },
    {
      "inputs": [],
      "name": "walletHoldsNFT",
      "outputs": [
        {
          "internalType": "bool",
          "name": "",
          "type": "bool"
        }
      ],
      "stateMutability": "view",
      "type": "function"
    }
  ],
  "bytecode": "0x60806040523480156200001157600080fd5b5060405162002cb638038062002cb683398181016040528101906200003791906200029c565b6040518060400160405280601a81526020017f4b65797320546f20546865204b696e67646f6d205469636b65740000000000008152506040518060400160405280600481526020017f4b54544b000000000000000000000000000000000000000000000000000000008152508160009080519060200190620000bb92919062000182565b508060019080519060200190620000d492919062000182565b50505080600760006101000a81548173ffffffffffffffffffffffffffffffffffffffff021916908373ffffffffffffffffffffffffffffffffffffffff160217905550600760009054906101000a900473ffffffffffffffffffffffffffffffffffffffff16600860006101000a81548173ffffffffffffffffffffffffffffffffffffffff021916908373ffffffffffffffffffffffffffffffffffffffff1602179055505062000333565b8280546200019090620002fd565b90600052602060002090601f016020900481019282620001b4576000855562000200565b82601f10620001cf57805160ff191683800117855562000200565b8280016001018555821562000200579182015b82811115620001ff578251825591602001919060010190620001e2565b5b5090506200020f919062000213565b5090565b5b808211156200022e57600081600090555060010162000214565b5090565b600080fd5b600073ffffffffffffffffffffffffffffffffffffffff82169050919050565b6000620002648262000237565b9050919050565b620002768162000257565b81146200028257600080fd5b50565b60008151905062000296816200026b565b92915050565b600060208284031215620002b557620002b462000232565b5b6000620002c58482850162000285565b91505092915050565b7f4e487b7100000000000000000000000000000000000000000000000000000000600052602260045260246000fd5b600060028204905060018216806200031657607f821691505b602082108114156200032d576200032c620002ce565b5b50919050565b61297380620003436000396000f3fe608060405234801561001057600080fd5b50600436106101165760003560e01c806390869b63116100a2578063a22cb46511610071578063a22cb465146102cf578063b88d4fde146102eb578063c87b56dd14610307578063d7eb5b6814610337578063e985e9c51461035557610116565b806390869b631461026b578063910361821461028957806395d89b41146102a75780639c151feb146102c557610116565b806323b872dd116100e957806323b872dd146101b557806342842e0e146101d15780636352211e146101ed57806370a082311461021d5780637a2689781461024d57610116565b806301ffc9a71461011b57806306fdde031461014b578063081812fc14610169578063095ea7b314610199575b600080fd5b61013560048036038101906101309190611a30565b610385565b6040516101429190611a78565b60405180910390f35b610153610467565b6040516101609190611b2c565b60405180910390f35b610183600480360381019061017e9190611b84565b6104f9565b6040516101909190611bf2565b60405180910390f35b6101b360048036038101906101ae9190611c39565b61053f565b005b6101cf60048036038101906101ca9190611c79565b610657565b005b6101eb60048036038101906101e69190611c79565b6106b7565b005b61020760048036038101906102029190611b84565b6106d7565b6040516102149190611bf2565b60405180910390f35b61023760048036038101906102329190611ccc565b610789565b6040516102449190611d08565b60405180910390f35b610255610841565b6040516102629190611d08565b60405180910390f35b610273610888565b6040516102809190611d08565b60405180910390f35b61029161093a565b60405161029e9190611a78565b60405180910390f35b6102af6109ee565b6040516102bc9190611b2c565b60405180910390f35b6102cd610a80565b005b6102e960048036038101906102e49190611d4f565b610b61565b005b61030560048036038101906103009190611ec4565b610b77565b005b610321600480360381019061031c9190611b84565b610bd9565b60405161032e9190611b2c565b60405180910390f35b61033f610c41565b60405161034c9190611d08565b60405180910390f35b61036f600480360381019061036a9190611f47565b610c62565b60405161037c9190611a78565b60405180910390f35b60007f80ac58cd000000000000000000000000000000000000000000000000000000007bffffffffffffffffffffffffffffffffffffffffffffffffffffffff1916827bffffffffffffffffffffffffffffffffffffffffffffffffffffffff1916148061045057507f5b5e139f000000000000000000000000000000000000000000000000000000007bffffffffffffffffffffffffffffffffffffffffffffffffffffffff1916827bffffffffffffffffffffffffffffffffffffffffffffffffffffffff1916145b80610460575061045f82610cf6565b5b9050919050565b60606000805461047690611fb6565b80601f01602080910402602001604051908101604052809291908181526020018280546104a290611fb6565b80156104ef5780601f106104c4576101008083540402835291602001916104ef565b820191906000526020600020905b8154815290600101906020018083116104d257829003601f168201915b5050505050905090565b600061050482610d60565b6004600083815260200190815260200160002060009054906101000a900473ffffffffffffffffffffffffffffffffffffffff169050919050565b600061054a826106d7565b90508073ffffffffffffffffffffffffffffffffffffffff168373ffffffffffffffffffffffffffffffffffffffff1614156105bb576040517f08c379a00000000000000000000000000000000000000000000000000000000081526004016105b29061205a565b60405180910390fd5b8073ffffffffffffffffffffffffffffffffffffffff166105da610dab565b73ffffffffffffffffffffffffffffffffffffffff161480610609575061060881610603610dab565b610c62565b5b610648576040517f08c379a000000000000000000000000000000000000000000000000000000000815260040161063f906120ec565b60405180910390fd5b6106528383610db3565b505050565b610668610662610dab565b82610e6c565b6106a7576040517f08c379a000000000000000000000000000000000000000000000000000000000815260040161069e9061217e565b60405180910390fd5b6106b2838383610f01565b505050565b6106d283838360405180602001604052806000815250610b77565b505050565b6000806002600084815260200190815260200160002060009054906101000a900473ffffffffffffffffffffffffffffffffffffffff169050600073ffffffffffffffffffffffffffffffffffffffff168173ffffffffffffffffffffffffffffffffffffffff161415610780576040517f08c379a0000000000000000000000000000000000000000000000000000000008152600401610777906121ea565b60405180910390fd5b80915050919050565b60008073ffffffffffffffffffffffffffffffffffffffff168273ffffffffffffffffffffffffffffffffffffffff1614156107fa576040517f08c379a00000000000000000000000000000000000000000000000000000000081526004016107f19061227c565b60405180910390fd5b600360008373ffffffffffffffffffffffffffffffffffffffff1673ffffffffffffffffffffffffffffffffffffffff168152602001908152602001600020549050919050565b6000600960003373ffffffffffffffffffffffffffffffffffffffff1673ffffffffffffffffffffffffffffffffffffffff16815260200190815260200160002054905090565b6000600860009054906101000a900473ffffffffffffffffffffffffffffffffffffffff1673ffffffffffffffffffffffffffffffffffffffff166370a08231336040518263ffffffff1660e01b81526004016108e59190611bf2565b60206040518083038186803b1580156108fd57600080fd5b505afa158015610911573d6000803e3d6000fd5b505050506040513d601f19601f8201168201806040525081019061093591906122b1565b905090565b600080600860009054906101000a900473ffffffffffffffffffffffffffffffffffffffff1673ffffffffffffffffffffffffffffffffffffffff166370a08231336040518263ffffffff1660e01b81526004016109989190611bf2565b60206040518083038186803b1580156109b057600080fd5b505afa1580156109c4573d6000803e3d6000fd5b505050506040513d601f19601f820116820180604052508101906109e891906122b1565b11905090565b6060600180546109fd90611fb6565b80601f0160208091040260200160405190810160405280929190818152602001828054610a2990611fb6565b8015610a765780601f10610a4b57610100808354040283529160200191610a76565b820191906000526020600020905b815481529060010190602001808311610a5957829003601f168201915b5050505050905090565b610a8861093a565b610abe576040517fdc5e712100000000000000000000000000000000000000000000000000000000815260040160405180910390fd5b6001610ac8610c41565b1015610b00576040517f380f04eb00000000000000000000000000000000000000000000000000000000815260040160405180910390fd5b6001600960003373ffffffffffffffffffffffffffffffffffffffff1673ffffffffffffffffffffffffffffffffffffffff1681526020019081526020016000206000828254610b50919061230d565b92505081905550610b5f611168565b565b610b73610b6c610dab565b83836111dc565b5050565b610b88610b82610dab565b83610e6c565b610bc7576040517f08c379a0000000000000000000000000000000000000000000000000000000008152600401610bbe9061217e565b60405180910390fd5b610bd384848484611349565b50505050565b6060610be482610d60565b6000610bee6113a5565b90506000815111610c0e5760405180602001604052806000815250610c39565b80610c18846113bc565b604051602001610c2992919061239f565b6040516020818303038152906040525b915050919050565b6000610c4b610841565b610c53610888565b610c5d91906123c3565b905090565b6000600560008473ffffffffffffffffffffffffffffffffffffffff1673ffffffffffffffffffffffffffffffffffffffff16815260200190815260200160002060008373ffffffffffffffffffffffffffffffffffffffff1673ffffffffffffffffffffffffffffffffffffffff16815260200190815260200160002060009054906101000a900460ff16905092915050565b60007f01ffc9a7000000000000000000000000000000000000000000000000000000007bffffffffffffffffffffffffffffffffffffffffffffffffffffffff1916827bffffffffffffffffffffffffffffffffffffffffffffffffffffffff1916149050919050565b610d698161151d565b610da8576040517f08c379a0000000000000000000000000000000000000000000000000000000008152600401610d9f906121ea565b60405180910390fd5b50565b600033905090565b816004600083815260200190815260200160002060006101000a81548173ffffffffffffffffffffffffffffffffffffffff021916908373ffffffffffffffffffffffffffffffffffffffff160217905550808273ffffffffffffffffffffffffffffffffffffffff16610e26836106d7565b73ffffffffffffffffffffffffffffffffffffffff167f8c5be1e5ebec7d5bd14f71427d1e84f3dd0314c0f7b2291e5b200ac8c7c3b92560405160405180910390a45050565b600080610e78836106d7565b90508073ffffffffffffffffffffffffffffffffffffffff168473ffffffffffffffffffffffffffffffffffffffff161480610eba5750610eb98185610c62565b5b80610ef857508373ffffffffffffffffffffffffffffffffffffffff16610ee0846104f9565b73ffffffffffffffffffffffffffffffffffffffff16145b91505092915050565b8273ffffffffffffffffffffffffffffffffffffffff16610f21826106d7565b73ffffffffffffffffffffffffffffffffffffffff1614610f77576040517f08c379a0000000000000000000000000000000000000000000000000000000008152600401610f6e90612469565b60405180910390fd5b600073ffffffffffffffffffffffffffffffffffffffff168273ffffffffffffffffffffffffffffffffffffffff161415610fe7576040517f08c379a0000000000000000000000000000000000000000000000000000000008152600401610fde906124fb565b60405180910390fd5b610ff2838383611589565b610ffd600082610db3565b6001600360008573ffffffffffffffffffffffffffffffffffffffff1673ffffffffffffffffffffffffffffffffffffffff168152602001908152602001600020600082825461104d91906123c3565b925050819055506001600360008473ffffffffffffffffffffffffffffffffffffffff1673ffffffffffffffffffffffffffffffffffffffff16815260200190815260200160002060008282546110a4919061230d565b92505081905550816002600083815260200190815260200160002060006101000a81548173ffffffffffffffffffffffffffffffffffffffff021916908373ffffffffffffffffffffffffffffffffffffffff160217905550808273ffffffffffffffffffffffffffffffffffffffff168473ffffffffffffffffffffffffffffffffffffffff167fddf252ad1be2c89b69c2b068fc378daa952ba7f163c4a11628f55a4df523b3ef60405160405180910390a461116383838361158e565b505050565b6111726006611593565b600061117e60066115a9565b905061118a33826115b7565b3373ffffffffffffffffffffffffffffffffffffffff167fe3bc6f5972e89b7adec47f0277204f27cd981570e200dd4d408093535c9e8e6960016040516111d19190612560565b60405180910390a250565b8173ffffffffffffffffffffffffffffffffffffffff168373ffffffffffffffffffffffffffffffffffffffff16141561124b576040517f08c379a0000000000000000000000000000000000000000000000000000000008152600401611242906125c7565b60405180910390fd5b80600560008573ffffffffffffffffffffffffffffffffffffffff1673ffffffffffffffffffffffffffffffffffffffff16815260200190815260200160002060008473ffffffffffffffffffffffffffffffffffffffff1673ffffffffffffffffffffffffffffffffffffffff16815260200190815260200160002060006101000a81548160ff0219169083151502179055508173ffffffffffffffffffffffffffffffffffffffff168373ffffffffffffffffffffffffffffffffffffffff167f17307eab39ab6107e8899845ad3d59bd9653f200f220920489ca2b5937696c318360405161133c9190611a78565b60405180910390a3505050565b611354848484610f01565b611360848484846115d5565b61139f576040517f08c379a000000000000000000000000000000000000000000000000000000000815260040161139690612659565b60405180910390fd5b50505050565b606060405180602001604052806000815250905090565b60606000821415611404576040518060400160405280600181526020017f30000000000000000000000000000000000000000000000000000000000000008152509050611518565b600082905060005b6000821461143657808061141f90612679565b915050600a8261142f91906126f1565b915061140c565b60008167ffffffffffffffff81111561145257611451611d99565b5b6040519080825280601f01601f1916602001820160405280156114845781602001600182028036833780820191505090505b5090505b600085146115115760018261149d91906123c3565b9150600a856114ac9190612722565b60306114b8919061230d565b60f81b8183815181106114ce576114cd612753565b5b60200101907effffffffffffffffffffffffffffffffffffffffffffffffffffffffffffff1916908160001a905350600a8561150a91906126f1565b9450611488565b8093505050505b919050565b60008073ffffffffffffffffffffffffffffffffffffffff166002600084815260200190815260200160002060009054906101000a900473ffffffffffffffffffffffffffffffffffffffff1673ffffffffffffffffffffffffffffffffffffffff1614159050919050565b505050565b505050565b6001816000016000828254019250508190555050565b600081600001549050919050565b6115d182826040518060200160405280600081525061176c565b5050565b60006115f68473ffffffffffffffffffffffffffffffffffffffff166117c7565b1561175f578373ffffffffffffffffffffffffffffffffffffffff1663150b7a0261161f610dab565b8786866040518563ffffffff1660e01b815260040161164194939291906127d7565b602060405180830381600087803b15801561165b57600080fd5b505af192505050801561168c57506040513d601f19601f820116820180604052508101906116899190612838565b60015b61170f573d80600081146116bc576040519150601f19603f3d011682016040523d82523d6000602084013e6116c1565b606091505b50600081511415611707576040517f08c379a00000000000000000000000000000000000000000000000000000000081526004016116fe90612659565b60405180910390fd5b805181602001fd5b63150b7a0260e01b7bffffffffffffffffffffffffffffffffffffffffffffffffffffffff1916817bffffffffffffffffffffffffffffffffffffffffffffffffffffffff191614915050611764565b600190505b949350505050565b61177683836117ea565b61178360008484846115d5565b6117c2576040517f08c379a00000000000000000000000000000000000000000000000000000000081526004016117b990612659565b60405180910390fd5b505050565b6000808273ffffffffffffffffffffffffffffffffffffffff163b119050919050565b600073ffffffffffffffffffffffffffffffffffffffff168273ffffffffffffffffffffffffffffffffffffffff16141561185a576040517f08c379a0000000000000000000000000000000000000000000000000000000008152600401611851906128b1565b60405180910390fd5b6118638161151d565b156118a3576040517f08c379a000000000000000000000000000000000000000000000000000000000815260040161189a9061291d565b60405180910390fd5b6118af60008383611589565b6001600360008473ffffffffffffffffffffffffffffffffffffffff1673ffffffffffffffffffffffffffffffffffffffff16815260200190815260200160002060008282546118ff919061230d565b92505081905550816002600083815260200190815260200160002060006101000a81548173ffffffffffffffffffffffffffffffffffffffff021916908373ffffffffffffffffffffffffffffffffffffffff160217905550808273ffffffffffffffffffffffffffffffffffffffff16600073ffffffffffffffffffffffffffffffffffffffff167fddf252ad1be2c89b69c2b068fc378daa952ba7f163c4a11628f55a4df523b3ef60405160405180910390a46119c06000838361158e565b5050565b6000604051905090565b600080fd5b600080fd5b60007fffffffff0000000000000000000000000000000000000000000000000000000082169050919050565b611a0d816119d8565b8114611a1857600080fd5b50565b600081359050611a2a81611a04565b92915050565b600060208284031215611a4657611a456119ce565b5b6000611a5484828501611a1b565b91505092915050565b60008115159050919050565b611a7281611a5d565b82525050565b6000602082019050611a8d6000830184611a69565b92915050565b600081519050919050565b600082825260208201905092915050565b60005b83811015611acd578082015181840152602081019050611ab2565b83811115611adc576000848401525b50505050565b6000601f19601f8301169050919050565b6000611afe82611a93565b611b088185611a9e565b9350611b18818560208601611aaf565b611b2181611ae2565b840191505092915050565b60006020820190508181036000830152611b468184611af3565b905092915050565b6000819050919050565b611b6181611b4e565b8114611b6c57600080fd5b50565b600081359050611b7e81611b58565b92915050565b600060208284031215611b9a57611b996119ce565b5b6000611ba884828501611b6f565b91505092915050565b600073ffffffffffffffffffffffffffffffffffffffff82169050919050565b6000611bdc82611bb1565b9050919050565b611bec81611bd1565b82525050565b6000602082019050611c076000830184611be3565b92915050565b611c1681611bd1565b8114611c2157600080fd5b50565b600081359050611c3381611c0d565b92915050565b60008060408385031215611c5057611c4f6119ce565b5b6000611c5e85828601611c24565b9250506020611c6f85828601611b6f565b9150509250929050565b600080600060608486031215611c9257611c916119ce565b5b6000611ca086828701611c24565b9350506020611cb186828701611c24565b9250506040611cc286828701611b6f565b9150509250925092565b600060208284031215611ce257611ce16119ce565b5b6000611cf084828501611c24565b91505092915050565b611d0281611b4e565b82525050565b6000602082019050611d1d6000830184611cf9565b92915050565b611d2c81611a5d565b8114611d3757600080fd5b50565b600081359050611d4981611d23565b92915050565b60008060408385031215611d6657611d656119ce565b5b6000611d7485828601611c24565b9250506020611d8585828601611d3a565b9150509250929050565b600080fd5b600080fd5b7f4e487b7100000000000000000000000000000000000000000000000000000000600052604160045260246000fd5b611dd182611ae2565b810181811067ffffffffffffffff82111715611df057611def611d99565b5b80604052505050565b6000611e036119c4565b9050611e0f8282611dc8565b919050565b600067ffffffffffffffff821115611e2f57611e2e611d99565b5b611e3882611ae2565b9050602081019050919050565b82818337600083830152505050565b6000611e67611e6284611e14565b611df9565b905082815260208101848484011115611e8357611e82611d94565b5b611e8e848285611e45565b509392505050565b600082601f830112611eab57611eaa611d8f565b5b8135611ebb848260208601611e54565b91505092915050565b60008060008060808587031215611ede57611edd6119ce565b5b6000611eec87828801611c24565b9450506020611efd87828801611c24565b9350506040611f0e87828801611b6f565b925050606085013567ffffffffffffffff811115611f2f57611f2e6119d3565b5b611f3b87828801611e96565b91505092959194509250565b60008060408385031215611f5e57611f5d6119ce565b5b6000611f6c85828601611c24565b9250506020611f7d85828601611c24565b9150509250929050565b7f4e487b7100000000000000000000000000000000000000000000000000000000600052602260045260246000fd5b60006002820490506001821680611fce57607f821691505b60208210811415611fe257611fe1611f87565b5b50919050565b7f4552433732313a20617070726f76616c20746f2063757272656e74206f776e6560008201527f7200000000000000000000000000000000000000000000000000000000000000602082015250565b6000612044602183611a9e565b915061204f82611fe8565b604082019050919050565b6000602082019050818103600083015261207381612037565b9050919050565b7f4552433732313a20617070726f76652063616c6c6572206973206e6f7420746f60008201527f6b656e206f776e6572206e6f7220617070726f76656420666f7220616c6c0000602082015250565b60006120d6603e83611a9e565b91506120e18261207a565b604082019050919050565b60006020820190508181036000830152612105816120c9565b9050919050565b7f4552433732313a2063616c6c6572206973206e6f7420746f6b656e206f776e6560008201527f72206e6f7220617070726f766564000000000000000000000000000000000000602082015250565b6000612168602e83611a9e565b91506121738261210c565b604082019050919050565b600060208201905081810360008301526121978161215b565b9050919050565b7f4552433732313a20696e76616c696420746f6b656e2049440000000000000000600082015250565b60006121d4601883611a9e565b91506121df8261219e565b602082019050919050565b60006020820190508181036000830152612203816121c7565b9050919050565b7f4552433732313a2061646472657373207a65726f206973206e6f74206120766160008201527f6c6964206f776e65720000000000000000000000000000000000000000000000602082015250565b6000612266602983611a9e565b91506122718261220a565b604082019050919050565b6000602082019050818103600083015261229581612259565b9050919050565b6000815190506122ab81611b58565b92915050565b6000602082840312156122c7576122c66119ce565b5b60006122d58482850161229c565b91505092915050565b7f4e487b7100000000000000000000000000000000000000000000000000000000600052601160045260246000fd5b600061231882611b4e565b915061232383611b4e565b9250827fffffffffffffffffffffffffffffffffffffffffffffffffffffffffffffffff03821115612358576123576122de565b5b828201905092915050565b600081905092915050565b600061237982611a93565b6123838185612363565b9350612393818560208601611aaf565b80840191505092915050565b60006123ab828561236e565b91506123b7828461236e565b91508190509392505050565b60006123ce82611b4e565b91506123d983611b4e565b9250828210156123ec576123eb6122de565b5b828203905092915050565b7f4552433732313a207472616e736665722066726f6d20696e636f72726563742060008201527f6f776e6572000000000000000000000000000000000000000000000000000000602082015250565b6000612453602583611a9e565b915061245e826123f7565b604082019050919050565b6000602082019050818103600083015261248281612446565b9050919050565b7f4552433732313a207472616e7366657220746f20746865207a65726f2061646460008201527f7265737300000000000000000000000000000000000000000000000000000000602082015250565b60006124e5602483611a9e565b91506124f082612489565b604082019050919050565b60006020820190508181036000830152612514816124d8565b9050919050565b6000819050919050565b6000819050919050565b600061254a6125456125408461251b565b612525565b611b4e565b9050919050565b61255a8161252f565b82525050565b60006020820190506125756000830184612551565b92915050565b7f4552433732313a20617070726f766520746f2063616c6c657200000000000000600082015250565b60006125b1601983611a9e565b91506125bc8261257b565b602082019050919050565b600060208201905081810360008301526125e0816125a4565b9050919050565b7f4552433732313a207472616e7366657220746f206e6f6e20455243373231526560008201527f63656976657220696d706c656d656e7465720000000000000000000000000000602082015250565b6000612643603283611a9e565b915061264e826125e7565b604082019050919050565b6000602082019050818103600083015261267281612636565b9050919050565b600061268482611b4e565b91507fffffffffffffffffffffffffffffffffffffffffffffffffffffffffffffffff8214156126b7576126b66122de565b5b600182019050919050565b7f4e487b7100000000000000000000000000000000000000000000000000000000600052601260045260246000fd5b60006126fc82611b4e565b915061270783611b4e565b925082612717576127166126c2565b5b828204905092915050565b600061272d82611b4e565b915061273883611b4e565b925082612748576127476126c2565b5b828206905092915050565b7f4e487b7100000000000000000000000000000000000000000000000000000000600052603260045260246000fd5b600081519050919050565b600082825260208201905092915050565b60006127a982612782565b6127b3818561278d565b93506127c3818560208601611aaf565b6127cc81611ae2565b840191505092915050565b60006080820190506127ec6000830187611be3565b6127f96020830186611be3565b6128066040830185611cf9565b8181036060830152612818818461279e565b905095945050505050565b60008151905061283281611a04565b92915050565b60006020828403121561284e5761284d6119ce565b5b600061285c84828501612823565b91505092915050565b7f4552433732313a206d696e7420746f20746865207a65726f2061646472657373600082015250565b600061289b602083611a9e565b91506128a682612865565b602082019050919050565b600060208201905081810360008301526128ca8161288e565b9050919050565b7f4552433732313a20746f6b656e20616c7265616479206d696e74656400000000600082015250565b6000612907601c83611a9e565b9150612912826128d1565b602082019050919050565b60006020820190508181036000830152612936816128fa565b905091905056fea2646970667358221220f8f5e1d97e6e7457f5759a9e88f3cbd2f97ddff59ec2118ae3b871976142910964736f6c63430008080033",
  "linkReferences": {},
  "deployedLinkReferences": {}
}