{
  "_format": "hh-sol-artifact-1",
  "contractName": "StitchExperience",
  "sourceName": "contracts/StitchExperience.sol",
  "abi": [
    {
      "inputs": [
        {
          "internalType": "address",
          "name": "stitchCollectionAddress",
          "type": "address"
        }
      ],
      "stateMutability": "nonpayable",
      "type": "constructor"
    },
    {
      "inputs": [],
      "name": "StitchExperience__AllTicketsHaveBeenClaimed",
      "type": "error"
    },
    {
      "inputs": [],
      "name": "StitchExperience__DoesNotOwnNFTFromCollection",
      "type": "error"
    },
    {
      "anonymous": false,
      "inputs": [
        {
          "indexed": true,
          "internalType": "address",
          "name": "owner",
          "type": "address"
        },
        {
          "indexed": true,
          "internalType": "address",
          "name": "approved",
          "type": "address"
        },
        {
          "indexed": true,
          "internalType": "uint256",
          "name": "tokenId",
          "type": "uint256"
        }
      ],
      "name": "Approval",
      "type": "event"
    },
    {
      "anonymous": false,
      "inputs": [
        {
          "indexed": true,
          "internalType": "address",
          "name": "owner",
          "type": "address"
        },
        {
          "indexed": true,
          "internalType": "address",
          "name": "operator",
          "type": "address"
        },
        {
          "indexed": false,
          "internalType": "bool",
          "name": "approved",
          "type": "bool"
        }
      ],
      "name": "ApprovalForAll",
      "type": "event"
    },
    {
      "anonymous": false,
      "inputs": [
        {
          "indexed": true,
          "internalType": "address",
          "name": "wallet",
          "type": "address"
        },
        {
          "indexed": false,
          "internalType": "uint256",
          "name": "ticketsClaimed",
          "type": "uint256"
        }
      ],
      "name": "TicketMinted",
      "type": "event"
    },
    {
      "anonymous": false,
      "inputs": [
        {
          "indexed": true,
          "internalType": "address",
          "name": "from",
          "type": "address"
        },
        {
          "indexed": true,
          "internalType": "address",
          "name": "to",
          "type": "address"
        },
        {
          "indexed": true,
          "internalType": "uint256",
          "name": "tokenId",
          "type": "uint256"
        }
      ],
      "name": "Transfer",
      "type": "event"
    },
    {
      "inputs": [
        {
          "internalType": "address",
          "name": "to",
          "type": "address"
        },
        {
          "internalType": "uint256",
          "name": "tokenId",
          "type": "uint256"
        }
      ],
      "name": "approve",
      "outputs": [],
      "stateMutability": "nonpayable",
      "type": "function"
    },
    {
      "inputs": [
        {
          "internalType": "address",
          "name": "owner",
          "type": "address"
        }
      ],
      "name": "balanceOf",
      "outputs": [
        {
          "internalType": "uint256",
          "name": "",
          "type": "uint256"
        }
      ],
      "stateMutability": "view",
      "type": "function"
    },
    {
      "inputs": [],
      "name": "claimTicketToExperience",
      "outputs": [],
      "stateMutability": "nonpayable",
      "type": "function"
    },
    {
      "inputs": [
        {
          "internalType": "uint256",
          "name": "tokenId",
          "type": "uint256"
        }
      ],
      "name": "getApproved",
      "outputs": [
        {
          "internalType": "address",
          "name": "",
          "type": "address"
        }
      ],
      "stateMutability": "view",
      "type": "function"
    },
    {
      "inputs": [
        {
          "internalType": "address",
          "name": "owner",
          "type": "address"
        },
        {
          "internalType": "address",
          "name": "operator",
          "type": "address"
        }
      ],
      "name": "isApprovedForAll",
      "outputs": [
        {
          "internalType": "bool",
          "name": "",
          "type": "bool"
        }
      ],
      "stateMutability": "view",
      "type": "function"
    },
    {
      "inputs": [],
      "name": "maxTicketsAvailableForAddress",
      "outputs": [
        {
          "internalType": "uint256",
          "name": "",
          "type": "uint256"
        }
      ],
      "stateMutability": "view",
      "type": "function"
    },
    {
      "inputs": [],
      "name": "name",
      "outputs": [
        {
          "internalType": "string",
          "name": "",
          "type": "string"
        }
      ],
      "stateMutability": "view",
      "type": "function"
    },
    {
      "inputs": [
        {
          "internalType": "uint256",
          "name": "tokenId",
          "type": "uint256"
        }
      ],
      "name": "ownerOf",
      "outputs": [
        {
          "internalType": "address",
          "name": "",
          "type": "address"
        }
      ],
      "stateMutability": "view",
      "type": "function"
    },
    {
      "inputs": [
        {
          "internalType": "address",
          "name": "from",
          "type": "address"
        },
        {
          "internalType": "address",
          "name": "to",
          "type": "address"
        },
        {
          "internalType": "uint256",
          "name": "tokenId",
          "type": "uint256"
        }
      ],
      "name": "safeTransferFrom",
      "outputs": [],
      "stateMutability": "nonpayable",
      "type": "function"
    },
    {
      "inputs": [
        {
          "internalType": "address",
          "name": "from",
          "type": "address"
        },
        {
          "internalType": "address",
          "name": "to",
          "type": "address"
        },
        {
          "internalType": "uint256",
          "name": "tokenId",
          "type": "uint256"
        },
        {
          "internalType": "bytes",
          "name": "data",
          "type": "bytes"
        }
      ],
      "name": "safeTransferFrom",
      "outputs": [],
      "stateMutability": "nonpayable",
      "type": "function"
    },
    {
      "inputs": [
        {
          "internalType": "address",
          "name": "operator",
          "type": "address"
        },
        {
          "internalType": "bool",
          "name": "approved",
          "type": "bool"
        }
      ],
      "name": "setApprovalForAll",
      "outputs": [],
      "stateMutability": "nonpayable",
      "type": "function"
    },
    {
      "inputs": [
        {
          "internalType": "bytes4",
          "name": "interfaceId",
          "type": "bytes4"
        }
      ],
      "name": "supportsInterface",
      "outputs": [
        {
          "internalType": "bool",
          "name": "",
          "type": "bool"
        }
      ],
      "stateMutability": "view",
      "type": "function"
    },
    {
      "inputs": [],
      "name": "symbol",
      "outputs": [
        {
          "internalType": "string",
          "name": "",
          "type": "string"
        }
      ],
      "stateMutability": "view",
      "type": "function"
    },
    {
      "inputs": [],
      "name": "ticketsClaimedByAddress",
      "outputs": [
        {
          "internalType": "uint256",
          "name": "",
          "type": "uint256"
        }
      ],
      "stateMutability": "view",
      "type": "function"
    },
    {
      "inputs": [],
      "name": "ticketsLeftToClaim",
      "outputs": [
        {
          "internalType": "uint256",
          "name": "",
          "type": "uint256"
        }
      ],
      "stateMutability": "view",
      "type": "function"
    },
    {
      "inputs": [
        {
          "internalType": "uint256",
          "name": "tokenId",
          "type": "uint256"
        }
      ],
      "name": "tokenURI",
      "outputs": [
        {
          "internalType": "string",
          "name": "",
          "type": "string"
        }
      ],
      "stateMutability": "view",
      "type": "function"
    },
    {
      "inputs": [
        {
          "internalType": "address",
          "name": "from",
          "type": "address"
        },
        {
          "internalType": "address",
          "name": "to",
          "type": "address"
        },
        {
          "internalType": "uint256",
          "name": "tokenId",
          "type": "uint256"
        }
      ],
      "name": "transferFrom",
      "outputs": [],
      "stateMutability": "nonpayable",
      "type": "function"
    },
    {
      "inputs": [],
      "name": "walletHoldsNFT",
      "outputs": [
        {
          "internalType": "bool",
          "name": "",
          "type": "bool"
        }
      ],
      "stateMutability": "view",
      "type": "function"
    }
  ],
  "bytecode": "0x60806040523480156200001157600080fd5b5060405162002cfd38038062002cfd833981810160405281019062000037919062000280565b60405180606001604052806023815260200162002cda602391396040518060400160405280600481526020017f534745540000000000000000000000000000000000000000000000000000000081525081600090805190602001906200009f92919062000166565b508060019080519060200190620000b892919062000166565b50505080600760006101000a81548173ffffffffffffffffffffffffffffffffffffffff021916908373ffffffffffffffffffffffffffffffffffffffff160217905550600760009054906101000a900473ffffffffffffffffffffffffffffffffffffffff16600860006101000a81548173ffffffffffffffffffffffffffffffffffffffff021916908373ffffffffffffffffffffffffffffffffffffffff1602179055505062000317565b8280546200017490620002e1565b90600052602060002090601f016020900481019282620001985760008555620001e4565b82601f10620001b357805160ff1916838001178555620001e4565b82800160010185558215620001e4579182015b82811115620001e3578251825591602001919060010190620001c6565b5b509050620001f39190620001f7565b5090565b5b8082111562000212576000816000905550600101620001f8565b5090565b600080fd5b600073ffffffffffffffffffffffffffffffffffffffff82169050919050565b600062000248826200021b565b9050919050565b6200025a816200023b565b81146200026657600080fd5b50565b6000815190506200027a816200024f565b92915050565b60006020828403121562000299576200029862000216565b5b6000620002a98482850162000269565b91505092915050565b7f4e487b7100000000000000000000000000000000000000000000000000000000600052602260045260246000fd5b60006002820490506001821680620002fa57607f821691505b60208210811415620003115762000310620002b2565b5b50919050565b6129b380620003276000396000f3fe608060405234801561001057600080fd5b50600436106101165760003560e01c806390869b63116100a2578063a22cb46511610071578063a22cb465146102cf578063b88d4fde146102eb578063c87b56dd14610307578063d7eb5b6814610337578063e985e9c51461035557610116565b806390869b631461026b578063910361821461028957806395d89b41146102a75780639c151feb146102c557610116565b806323b872dd116100e957806323b872dd146101b557806342842e0e146101d15780636352211e146101ed57806370a082311461021d5780637a2689781461024d57610116565b806301ffc9a71461011b57806306fdde031461014b578063081812fc14610169578063095ea7b314610199575b600080fd5b61013560048036038101906101309190611a2e565b610385565b6040516101429190611a76565b60405180910390f35b610153610467565b6040516101609190611b2a565b60405180910390f35b610183600480360381019061017e9190611b82565b6104f9565b6040516101909190611bf0565b60405180910390f35b6101b360048036038101906101ae9190611c37565b61053f565b005b6101cf60048036038101906101ca9190611c77565b610657565b005b6101eb60048036038101906101e69190611c77565b6106b7565b005b61020760048036038101906102029190611b82565b6106d7565b6040516102149190611bf0565b60405180910390f35b61023760048036038101906102329190611cca565b610789565b6040516102449190611d06565b60405180910390f35b610255610841565b6040516102629190611d06565b60405180910390f35b610273610888565b6040516102809190611d06565b60405180910390f35b61029161093a565b60405161029e9190611a76565b60405180910390f35b6102af6109ec565b6040516102bc9190611b2a565b60405180910390f35b6102cd610a7e565b005b6102e960048036038101906102e49190611d4d565b610b5f565b005b61030560048036038101906103009190611ec2565b610b75565b005b610321600480360381019061031c9190611b82565b610bd7565b60405161032e9190611b2a565b60405180910390f35b61033f610c3f565b60405161034c9190611d06565b60405180910390f35b61036f600480360381019061036a9190611f45565b610c60565b60405161037c9190611a76565b60405180910390f35b60007f80ac58cd000000000000000000000000000000000000000000000000000000007bffffffffffffffffffffffffffffffffffffffffffffffffffffffff1916827bffffffffffffffffffffffffffffffffffffffffffffffffffffffff1916148061045057507f5b5e139f000000000000000000000000000000000000000000000000000000007bffffffffffffffffffffffffffffffffffffffffffffffffffffffff1916827bffffffffffffffffffffffffffffffffffffffffffffffffffffffff1916145b80610460575061045f82610cf4565b5b9050919050565b60606000805461047690611fb4565b80601f01602080910402602001604051908101604052809291908181526020018280546104a290611fb4565b80156104ef5780601f106104c4576101008083540402835291602001916104ef565b820191906000526020600020905b8154815290600101906020018083116104d257829003601f168201915b5050505050905090565b600061050482610d5e565b6004600083815260200190815260200160002060009054906101000a900473ffffffffffffffffffffffffffffffffffffffff169050919050565b600061054a826106d7565b90508073ffffffffffffffffffffffffffffffffffffffff168373ffffffffffffffffffffffffffffffffffffffff1614156105bb576040517f08c379a00000000000000000000000000000000000000000000000000000000081526004016105b290612058565b60405180910390fd5b8073ffffffffffffffffffffffffffffffffffffffff166105da610da9565b73ffffffffffffffffffffffffffffffffffffffff161480610609575061060881610603610da9565b610c60565b5b610648576040517f08c379a000000000000000000000000000000000000000000000000000000000815260040161063f906120ea565b60405180910390fd5b6106528383610db1565b505050565b610668610662610da9565b82610e6a565b6106a7576040517f08c379a000000000000000000000000000000000000000000000000000000000815260040161069e9061217c565b60405180910390fd5b6106b2838383610eff565b505050565b6106d283838360405180602001604052806000815250610b75565b505050565b6000806002600084815260200190815260200160002060009054906101000a900473ffffffffffffffffffffffffffffffffffffffff169050600073ffffffffffffffffffffffffffffffffffffffff168173ffffffffffffffffffffffffffffffffffffffff161415610780576040517f08c379a0000000000000000000000000000000000000000000000000000000008152600401610777906121e8565b60405180910390fd5b80915050919050565b60008073ffffffffffffffffffffffffffffffffffffffff168273ffffffffffffffffffffffffffffffffffffffff1614156107fa576040517f08c379a00000000000000000000000000000000000000000000000000000000081526004016107f19061227a565b60405180910390fd5b600360008373ffffffffffffffffffffffffffffffffffffffff1673ffffffffffffffffffffffffffffffffffffffff168152602001908152602001600020549050919050565b6000600960003373ffffffffffffffffffffffffffffffffffffffff1673ffffffffffffffffffffffffffffffffffffffff16815260200190815260200160002054905090565b6000600860009054906101000a900473ffffffffffffffffffffffffffffffffffffffff1673ffffffffffffffffffffffffffffffffffffffff1663b24046f5336040518263ffffffff1660e01b81526004016108e59190611bf0565b60206040518083038186803b1580156108fd57600080fd5b505afa158015610911573d6000803e3d6000fd5b505050506040513d601f19601f8201168201806040525081019061093591906122af565b905090565b6000600860009054906101000a900473ffffffffffffffffffffffffffffffffffffffff1673ffffffffffffffffffffffffffffffffffffffff1663039213a8336040518263ffffffff1660e01b81526004016109979190611bf0565b60206040518083038186803b1580156109af57600080fd5b505afa1580156109c3573d6000803e3d6000fd5b505050506040513d601f19601f820116820180604052508101906109e791906122f1565b905090565b6060600180546109fb90611fb4565b80601f0160208091040260200160405190810160405280929190818152602001828054610a2790611fb4565b8015610a745780601f10610a4957610100808354040283529160200191610a74565b820191906000526020600020905b815481529060010190602001808311610a5757829003601f168201915b5050505050905090565b610a8661093a565b610abc576040517f1d0d732b00000000000000000000000000000000000000000000000000000000815260040160405180910390fd5b6001610ac6610c3f565b1015610afe576040517f81d8eca500000000000000000000000000000000000000000000000000000000815260040160405180910390fd5b6001600960003373ffffffffffffffffffffffffffffffffffffffff1673ffffffffffffffffffffffffffffffffffffffff1681526020019081526020016000206000828254610b4e919061234d565b92505081905550610b5d611166565b565b610b71610b6a610da9565b83836111da565b5050565b610b86610b80610da9565b83610e6a565b610bc5576040517f08c379a0000000000000000000000000000000000000000000000000000000008152600401610bbc9061217c565b60405180910390fd5b610bd184848484611347565b50505050565b6060610be282610d5e565b6000610bec6113a3565b90506000815111610c0c5760405180602001604052806000815250610c37565b80610c16846113ba565b604051602001610c279291906123df565b6040516020818303038152906040525b915050919050565b6000610c49610841565b610c51610888565b610c5b9190612403565b905090565b6000600560008473ffffffffffffffffffffffffffffffffffffffff1673ffffffffffffffffffffffffffffffffffffffff16815260200190815260200160002060008373ffffffffffffffffffffffffffffffffffffffff1673ffffffffffffffffffffffffffffffffffffffff16815260200190815260200160002060009054906101000a900460ff16905092915050565b60007f01ffc9a7000000000000000000000000000000000000000000000000000000007bffffffffffffffffffffffffffffffffffffffffffffffffffffffff1916827bffffffffffffffffffffffffffffffffffffffffffffffffffffffff1916149050919050565b610d678161151b565b610da6576040517f08c379a0000000000000000000000000000000000000000000000000000000008152600401610d9d906121e8565b60405180910390fd5b50565b600033905090565b816004600083815260200190815260200160002060006101000a81548173ffffffffffffffffffffffffffffffffffffffff021916908373ffffffffffffffffffffffffffffffffffffffff160217905550808273ffffffffffffffffffffffffffffffffffffffff16610e24836106d7565b73ffffffffffffffffffffffffffffffffffffffff167f8c5be1e5ebec7d5bd14f71427d1e84f3dd0314c0f7b2291e5b200ac8c7c3b92560405160405180910390a45050565b600080610e76836106d7565b90508073ffffffffffffffffffffffffffffffffffffffff168473ffffffffffffffffffffffffffffffffffffffff161480610eb85750610eb78185610c60565b5b80610ef657508373ffffffffffffffffffffffffffffffffffffffff16610ede846104f9565b73ffffffffffffffffffffffffffffffffffffffff16145b91505092915050565b8273ffffffffffffffffffffffffffffffffffffffff16610f1f826106d7565b73ffffffffffffffffffffffffffffffffffffffff1614610f75576040517f08c379a0000000000000000000000000000000000000000000000000000000008152600401610f6c906124a9565b60405180910390fd5b600073ffffffffffffffffffffffffffffffffffffffff168273ffffffffffffffffffffffffffffffffffffffff161415610fe5576040517f08c379a0000000000000000000000000000000000000000000000000000000008152600401610fdc9061253b565b60405180910390fd5b610ff0838383611587565b610ffb600082610db1565b6001600360008573ffffffffffffffffffffffffffffffffffffffff1673ffffffffffffffffffffffffffffffffffffffff168152602001908152602001600020600082825461104b9190612403565b925050819055506001600360008473ffffffffffffffffffffffffffffffffffffffff1673ffffffffffffffffffffffffffffffffffffffff16815260200190815260200160002060008282546110a2919061234d565b92505081905550816002600083815260200190815260200160002060006101000a81548173ffffffffffffffffffffffffffffffffffffffff021916908373ffffffffffffffffffffffffffffffffffffffff160217905550808273ffffffffffffffffffffffffffffffffffffffff168473ffffffffffffffffffffffffffffffffffffffff167fddf252ad1be2c89b69c2b068fc378daa952ba7f163c4a11628f55a4df523b3ef60405160405180910390a461116183838361158c565b505050565b6111706006611591565b600061117c60066115a7565b905061118833826115b5565b3373ffffffffffffffffffffffffffffffffffffffff167fe3bc6f5972e89b7adec47f0277204f27cd981570e200dd4d408093535c9e8e6960016040516111cf91906125a0565b60405180910390a250565b8173ffffffffffffffffffffffffffffffffffffffff168373ffffffffffffffffffffffffffffffffffffffff161415611249576040517f08c379a000000000000000000000000000000000000000000000000000000000815260040161124090612607565b60405180910390fd5b80600560008573ffffffffffffffffffffffffffffffffffffffff1673ffffffffffffffffffffffffffffffffffffffff16815260200190815260200160002060008473ffffffffffffffffffffffffffffffffffffffff1673ffffffffffffffffffffffffffffffffffffffff16815260200190815260200160002060006101000a81548160ff0219169083151502179055508173ffffffffffffffffffffffffffffffffffffffff168373ffffffffffffffffffffffffffffffffffffffff167f17307eab39ab6107e8899845ad3d59bd9653f200f220920489ca2b5937696c318360405161133a9190611a76565b60405180910390a3505050565b611352848484610eff565b61135e848484846115d3565b61139d576040517f08c379a000000000000000000000000000000000000000000000000000000000815260040161139490612699565b60405180910390fd5b50505050565b606060405180602001604052806000815250905090565b60606000821415611402576040518060400160405280600181526020017f30000000000000000000000000000000000000000000000000000000000000008152509050611516565b600082905060005b6000821461143457808061141d906126b9565b915050600a8261142d9190612731565b915061140a565b60008167ffffffffffffffff8111156114505761144f611d97565b5b6040519080825280601f01601f1916602001820160405280156114825781602001600182028036833780820191505090505b5090505b6000851461150f5760018261149b9190612403565b9150600a856114aa9190612762565b60306114b6919061234d565b60f81b8183815181106114cc576114cb612793565b5b60200101907effffffffffffffffffffffffffffffffffffffffffffffffffffffffffffff1916908160001a905350600a856115089190612731565b9450611486565b8093505050505b919050565b60008073ffffffffffffffffffffffffffffffffffffffff166002600084815260200190815260200160002060009054906101000a900473ffffffffffffffffffffffffffffffffffffffff1673ffffffffffffffffffffffffffffffffffffffff1614159050919050565b505050565b505050565b6001816000016000828254019250508190555050565b600081600001549050919050565b6115cf82826040518060200160405280600081525061176a565b5050565b60006115f48473ffffffffffffffffffffffffffffffffffffffff166117c5565b1561175d578373ffffffffffffffffffffffffffffffffffffffff1663150b7a0261161d610da9565b8786866040518563ffffffff1660e01b815260040161163f9493929190612817565b602060405180830381600087803b15801561165957600080fd5b505af192505050801561168a57506040513d601f19601f820116820180604052508101906116879190612878565b60015b61170d573d80600081146116ba576040519150601f19603f3d011682016040523d82523d6000602084013e6116bf565b606091505b50600081511415611705576040517f08c379a00000000000000000000000000000000000000000000000000000000081526004016116fc90612699565b60405180910390fd5b805181602001fd5b63150b7a0260e01b7bffffffffffffffffffffffffffffffffffffffffffffffffffffffff1916817bffffffffffffffffffffffffffffffffffffffffffffffffffffffff191614915050611762565b600190505b949350505050565b61177483836117e8565b61178160008484846115d3565b6117c0576040517f08c379a00000000000000000000000000000000000000000000000000000000081526004016117b790612699565b60405180910390fd5b505050565b6000808273ffffffffffffffffffffffffffffffffffffffff163b119050919050565b600073ffffffffffffffffffffffffffffffffffffffff168273ffffffffffffffffffffffffffffffffffffffff161415611858576040517f08c379a000000000000000000000000000000000000000000000000000000000815260040161184f906128f1565b60405180910390fd5b6118618161151b565b156118a1576040517f08c379a00000000000000000000000000000000000000000000000000000000081526004016118989061295d565b60405180910390fd5b6118ad60008383611587565b6001600360008473ffffffffffffffffffffffffffffffffffffffff1673ffffffffffffffffffffffffffffffffffffffff16815260200190815260200160002060008282546118fd919061234d565b92505081905550816002600083815260200190815260200160002060006101000a81548173ffffffffffffffffffffffffffffffffffffffff021916908373ffffffffffffffffffffffffffffffffffffffff160217905550808273ffffffffffffffffffffffffffffffffffffffff16600073ffffffffffffffffffffffffffffffffffffffff167fddf252ad1be2c89b69c2b068fc378daa952ba7f163c4a11628f55a4df523b3ef60405160405180910390a46119be6000838361158c565b5050565b6000604051905090565b600080fd5b600080fd5b60007fffffffff0000000000000000000000000000000000000000000000000000000082169050919050565b611a0b816119d6565b8114611a1657600080fd5b50565b600081359050611a2881611a02565b92915050565b600060208284031215611a4457611a436119cc565b5b6000611a5284828501611a19565b91505092915050565b60008115159050919050565b611a7081611a5b565b82525050565b6000602082019050611a8b6000830184611a67565b92915050565b600081519050919050565b600082825260208201905092915050565b60005b83811015611acb578082015181840152602081019050611ab0565b83811115611ada576000848401525b50505050565b6000601f19601f8301169050919050565b6000611afc82611a91565b611b068185611a9c565b9350611b16818560208601611aad565b611b1f81611ae0565b840191505092915050565b60006020820190508181036000830152611b448184611af1565b905092915050565b6000819050919050565b611b5f81611b4c565b8114611b6a57600080fd5b50565b600081359050611b7c81611b56565b92915050565b600060208284031215611b9857611b976119cc565b5b6000611ba684828501611b6d565b91505092915050565b600073ffffffffffffffffffffffffffffffffffffffff82169050919050565b6000611bda82611baf565b9050919050565b611bea81611bcf565b82525050565b6000602082019050611c056000830184611be1565b92915050565b611c1481611bcf565b8114611c1f57600080fd5b50565b600081359050611c3181611c0b565b92915050565b60008060408385031215611c4e57611c4d6119cc565b5b6000611c5c85828601611c22565b9250506020611c6d85828601611b6d565b9150509250929050565b600080600060608486031215611c9057611c8f6119cc565b5b6000611c9e86828701611c22565b9350506020611caf86828701611c22565b9250506040611cc086828701611b6d565b9150509250925092565b600060208284031215611ce057611cdf6119cc565b5b6000611cee84828501611c22565b91505092915050565b611d0081611b4c565b82525050565b6000602082019050611d1b6000830184611cf7565b92915050565b611d2a81611a5b565b8114611d3557600080fd5b50565b600081359050611d4781611d21565b92915050565b60008060408385031215611d6457611d636119cc565b5b6000611d7285828601611c22565b9250506020611d8385828601611d38565b9150509250929050565b600080fd5b600080fd5b7f4e487b7100000000000000000000000000000000000000000000000000000000600052604160045260246000fd5b611dcf82611ae0565b810181811067ffffffffffffffff82111715611dee57611ded611d97565b5b80604052505050565b6000611e016119c2565b9050611e0d8282611dc6565b919050565b600067ffffffffffffffff821115611e2d57611e2c611d97565b5b611e3682611ae0565b9050602081019050919050565b82818337600083830152505050565b6000611e65611e6084611e12565b611df7565b905082815260208101848484011115611e8157611e80611d92565b5b611e8c848285611e43565b509392505050565b600082601f830112611ea957611ea8611d8d565b5b8135611eb9848260208601611e52565b91505092915050565b60008060008060808587031215611edc57611edb6119cc565b5b6000611eea87828801611c22565b9450506020611efb87828801611c22565b9350506040611f0c87828801611b6d565b925050606085013567ffffffffffffffff811115611f2d57611f2c6119d1565b5b611f3987828801611e94565b91505092959194509250565b60008060408385031215611f5c57611f5b6119cc565b5b6000611f6a85828601611c22565b9250506020611f7b85828601611c22565b9150509250929050565b7f4e487b7100000000000000000000000000000000000000000000000000000000600052602260045260246000fd5b60006002820490506001821680611fcc57607f821691505b60208210811415611fe057611fdf611f85565b5b50919050565b7f4552433732313a20617070726f76616c20746f2063757272656e74206f776e6560008201527f7200000000000000000000000000000000000000000000000000000000000000602082015250565b6000612042602183611a9c565b915061204d82611fe6565b604082019050919050565b6000602082019050818103600083015261207181612035565b9050919050565b7f4552433732313a20617070726f76652063616c6c6572206973206e6f7420746f60008201527f6b656e206f776e6572206e6f7220617070726f76656420666f7220616c6c0000602082015250565b60006120d4603e83611a9c565b91506120df82612078565b604082019050919050565b60006020820190508181036000830152612103816120c7565b9050919050565b7f4552433732313a2063616c6c6572206973206e6f7420746f6b656e206f776e6560008201527f72206e6f7220617070726f766564000000000000000000000000000000000000602082015250565b6000612166602e83611a9c565b91506121718261210a565b604082019050919050565b6000602082019050818103600083015261219581612159565b9050919050565b7f4552433732313a20696e76616c696420746f6b656e2049440000000000000000600082015250565b60006121d2601883611a9c565b91506121dd8261219c565b602082019050919050565b60006020820190508181036000830152612201816121c5565b9050919050565b7f4552433732313a2061646472657373207a65726f206973206e6f74206120766160008201527f6c6964206f776e65720000000000000000000000000000000000000000000000602082015250565b6000612264602983611a9c565b915061226f82612208565b604082019050919050565b6000602082019050818103600083015261229381612257565b9050919050565b6000815190506122a981611b56565b92915050565b6000602082840312156122c5576122c46119cc565b5b60006122d38482850161229a565b91505092915050565b6000815190506122eb81611d21565b92915050565b600060208284031215612307576123066119cc565b5b6000612315848285016122dc565b91505092915050565b7f4e487b7100000000000000000000000000000000000000000000000000000000600052601160045260246000fd5b600061235882611b4c565b915061236383611b4c565b9250827fffffffffffffffffffffffffffffffffffffffffffffffffffffffffffffffff038211156123985761239761231e565b5b828201905092915050565b600081905092915050565b60006123b982611a91565b6123c381856123a3565b93506123d3818560208601611aad565b80840191505092915050565b60006123eb82856123ae565b91506123f782846123ae565b91508190509392505050565b600061240e82611b4c565b915061241983611b4c565b92508282101561242c5761242b61231e565b5b828203905092915050565b7f4552433732313a207472616e736665722066726f6d20696e636f72726563742060008201527f6f776e6572000000000000000000000000000000000000000000000000000000602082015250565b6000612493602583611a9c565b915061249e82612437565b604082019050919050565b600060208201905081810360008301526124c281612486565b9050919050565b7f4552433732313a207472616e7366657220746f20746865207a65726f2061646460008201527f7265737300000000000000000000000000000000000000000000000000000000602082015250565b6000612525602483611a9c565b9150612530826124c9565b604082019050919050565b6000602082019050818103600083015261255481612518565b9050919050565b6000819050919050565b6000819050919050565b600061258a6125856125808461255b565b612565565b611b4c565b9050919050565b61259a8161256f565b82525050565b60006020820190506125b56000830184612591565b92915050565b7f4552433732313a20617070726f766520746f2063616c6c657200000000000000600082015250565b60006125f1601983611a9c565b91506125fc826125bb565b602082019050919050565b60006020820190508181036000830152612620816125e4565b9050919050565b7f4552433732313a207472616e7366657220746f206e6f6e20455243373231526560008201527f63656976657220696d706c656d656e7465720000000000000000000000000000602082015250565b6000612683603283611a9c565b915061268e82612627565b604082019050919050565b600060208201905081810360008301526126b281612676565b9050919050565b60006126c482611b4c565b91507fffffffffffffffffffffffffffffffffffffffffffffffffffffffffffffffff8214156126f7576126f661231e565b5b600182019050919050565b7f4e487b7100000000000000000000000000000000000000000000000000000000600052601260045260246000fd5b600061273c82611b4c565b915061274783611b4c565b92508261275757612756612702565b5b828204905092915050565b600061276d82611b4c565b915061277883611b4c565b92508261278857612787612702565b5b828206905092915050565b7f4e487b7100000000000000000000000000000000000000000000000000000000600052603260045260246000fd5b600081519050919050565b600082825260208201905092915050565b60006127e9826127c2565b6127f381856127cd565b9350612803818560208601611aad565b61280c81611ae0565b840191505092915050565b600060808201905061282c6000830187611be1565b6128396020830186611be1565b6128466040830185611cf7565b818103606083015261285881846127de565b905095945050505050565b60008151905061287281611a02565b92915050565b60006020828403121561288e5761288d6119cc565b5b600061289c84828501612863565b91505092915050565b7f4552433732313a206d696e7420746f20746865207a65726f2061646472657373600082015250565b60006128db602083611a9c565b91506128e6826128a5565b602082019050919050565b6000602082019050818103600083015261290a816128ce565b9050919050565b7f4552433732313a20746f6b656e20616c7265616479206d696e74656400000000600082015250565b6000612947601c83611a9c565b915061295282612911565b602082019050919050565b600060208201905081810360008301526129768161293a565b905091905056fea26469706673582212203331079465c978538603adc534490b3fff66785d80e499c2940322829ba8f34864736f6c6343000808003353746974636827732047616c616374696320457870657269656e6365205469636b6574",
  "linkReferences": {},
  "deployedLinkReferences": {}
}